{
  "contractName": "TestFuturePunks",
  "abi": [
    {
      "inputs": [],
      "stateMutability": "nonpayable",
      "type": "constructor"
    },
    {
      "anonymous": false,
      "inputs": [
        {
          "indexed": true,
          "internalType": "address",
          "name": "owner",
          "type": "address"
        },
        {
          "indexed": true,
          "internalType": "address",
          "name": "approved",
          "type": "address"
        },
        {
          "indexed": true,
          "internalType": "uint256",
          "name": "tokenId",
          "type": "uint256"
        }
      ],
      "name": "Approval",
      "type": "event"
    },
    {
      "anonymous": false,
      "inputs": [
        {
          "indexed": true,
          "internalType": "address",
          "name": "owner",
          "type": "address"
        },
        {
          "indexed": true,
          "internalType": "address",
          "name": "operator",
          "type": "address"
        },
        {
          "indexed": false,
          "internalType": "bool",
          "name": "approved",
          "type": "bool"
        }
      ],
      "name": "ApprovalForAll",
      "type": "event"
    },
    {
      "anonymous": false,
      "inputs": [
        {
          "indexed": true,
          "internalType": "address",
          "name": "previousOwner",
          "type": "address"
        },
        {
          "indexed": true,
          "internalType": "address",
          "name": "newOwner",
          "type": "address"
        }
      ],
      "name": "OwnershipTransferred",
      "type": "event"
    },
    {
      "anonymous": false,
      "inputs": [
        {
          "indexed": true,
          "internalType": "address",
          "name": "from",
          "type": "address"
        },
        {
          "indexed": true,
          "internalType": "address",
          "name": "to",
          "type": "address"
        },
        {
          "indexed": true,
          "internalType": "uint256",
          "name": "tokenId",
          "type": "uint256"
        }
      ],
      "name": "Transfer",
      "type": "event"
    },
    {
      "inputs": [],
      "name": "FinalProofHash",
      "outputs": [
        {
          "internalType": "string",
          "name": "",
          "type": "string"
        }
      ],
      "stateMutability": "view",
      "type": "function",
      "constant": true
    },
    {
      "inputs": [],
      "name": "MAX_NFT_SUPPLY",
      "outputs": [
        {
          "internalType": "uint256",
          "name": "",
          "type": "uint256"
        }
      ],
      "stateMutability": "view",
      "type": "function",
      "constant": true
    },
    {
      "inputs": [],
      "name": "METADATA_IPFS_HASH",
      "outputs": [
        {
          "internalType": "string",
          "name": "",
          "type": "string"
        }
      ],
      "stateMutability": "view",
      "type": "function",
      "constant": true
    },
    {
      "inputs": [],
      "name": "_currentTokenId",
      "outputs": [
        {
          "internalType": "uint256",
          "name": "",
          "type": "uint256"
        }
      ],
      "stateMutability": "view",
      "type": "function",
      "constant": true
    },
    {
      "inputs": [
        {
          "internalType": "address",
          "name": "",
          "type": "address"
        }
      ],
      "name": "_firstPresaleCounter",
      "outputs": [
        {
          "internalType": "uint256",
          "name": "",
          "type": "uint256"
        }
      ],
      "stateMutability": "view",
      "type": "function",
      "constant": true
    },
    {
      "inputs": [
        {
          "internalType": "uint256",
          "name": "",
          "type": "uint256"
        }
      ],
      "name": "_firstPresaleList",
      "outputs": [
        {
          "internalType": "address",
          "name": "",
          "type": "address"
        }
      ],
      "stateMutability": "view",
      "type": "function",
      "constant": true
    },
    {
      "inputs": [],
      "name": "_presaleOneEnabled",
      "outputs": [
        {
          "internalType": "bool",
          "name": "",
          "type": "bool"
        }
      ],
      "stateMutability": "view",
      "type": "function",
      "constant": true
    },
    {
      "inputs": [],
      "name": "_presaleTwoEnabled",
      "outputs": [
        {
          "internalType": "bool",
          "name": "",
          "type": "bool"
        }
      ],
      "stateMutability": "view",
      "type": "function",
      "constant": true
    },
    {
      "inputs": [],
      "name": "_publicSaleEnabled",
      "outputs": [
        {
          "internalType": "bool",
          "name": "",
          "type": "bool"
        }
      ],
      "stateMutability": "view",
      "type": "function",
      "constant": true
    },
    {
      "inputs": [
        {
          "internalType": "address",
          "name": "",
          "type": "address"
        }
      ],
      "name": "_secondPresaleCounter",
      "outputs": [
        {
          "internalType": "uint256",
          "name": "",
          "type": "uint256"
        }
      ],
      "stateMutability": "view",
      "type": "function",
      "constant": true
    },
    {
      "inputs": [
        {
          "internalType": "uint256",
          "name": "",
          "type": "uint256"
        }
      ],
      "name": "_secondPresaleList",
      "outputs": [
        {
          "internalType": "address",
          "name": "",
          "type": "address"
        }
      ],
      "stateMutability": "view",
      "type": "function",
      "constant": true
    },
    {
      "inputs": [
        {
          "internalType": "address",
          "name": "to",
          "type": "address"
        },
        {
          "internalType": "uint256",
          "name": "tokenId",
          "type": "uint256"
        }
      ],
      "name": "approve",
      "outputs": [],
      "stateMutability": "nonpayable",
      "type": "function"
    },
    {
      "inputs": [
        {
          "internalType": "address",
          "name": "owner",
          "type": "address"
        }
      ],
      "name": "balanceOf",
      "outputs": [
        {
          "internalType": "uint256",
          "name": "",
          "type": "uint256"
        }
      ],
      "stateMutability": "view",
      "type": "function",
      "constant": true
    },
    {
      "inputs": [],
      "name": "baseURI",
      "outputs": [
        {
          "internalType": "string",
          "name": "",
          "type": "string"
        }
      ],
      "stateMutability": "view",
      "type": "function",
      "constant": true
    },
    {
      "inputs": [],
      "name": "firstPresaleLimit",
      "outputs": [
        {
          "internalType": "uint256",
          "name": "",
          "type": "uint256"
        }
      ],
      "stateMutability": "view",
      "type": "function",
      "constant": true
    },
    {
      "inputs": [
        {
          "internalType": "uint256",
          "name": "tokenId",
          "type": "uint256"
        }
      ],
      "name": "getApproved",
      "outputs": [
        {
          "internalType": "address",
          "name": "",
          "type": "address"
        }
      ],
      "stateMutability": "view",
      "type": "function",
      "constant": true
    },
    {
      "inputs": [
        {
          "internalType": "address",
          "name": "owner",
          "type": "address"
        },
        {
          "internalType": "address",
          "name": "operator",
          "type": "address"
        }
      ],
      "name": "isApprovedForAll",
      "outputs": [
        {
          "internalType": "bool",
          "name": "",
          "type": "bool"
        }
      ],
      "stateMutability": "view",
      "type": "function",
      "constant": true
    },
    {
      "inputs": [],
      "name": "maxPurchase",
      "outputs": [
        {
          "internalType": "uint256",
          "name": "",
          "type": "uint256"
        }
      ],
      "stateMutability": "view",
      "type": "function",
      "constant": true
    },
    {
      "inputs": [],
      "name": "metadataRevealed",
      "outputs": [
        {
          "internalType": "bool",
          "name": "",
          "type": "bool"
        }
      ],
      "stateMutability": "view",
      "type": "function",
      "constant": true
    },
    {
      "inputs": [],
      "name": "name",
      "outputs": [
        {
          "internalType": "string",
          "name": "",
          "type": "string"
        }
      ],
      "stateMutability": "view",
      "type": "function",
      "constant": true
    },
    {
      "inputs": [],
      "name": "owner",
      "outputs": [
        {
          "internalType": "address",
          "name": "",
          "type": "address"
        }
      ],
      "stateMutability": "view",
      "type": "function",
      "constant": true
    },
    {
      "inputs": [
        {
          "internalType": "uint256",
          "name": "tokenId",
          "type": "uint256"
        }
      ],
      "name": "ownerOf",
      "outputs": [
        {
          "internalType": "address",
          "name": "",
          "type": "address"
        }
      ],
      "stateMutability": "view",
      "type": "function",
      "constant": true
    },
    {
      "inputs": [],
      "name": "renounceOwnership",
      "outputs": [],
      "stateMutability": "nonpayable",
      "type": "function"
    },
    {
      "inputs": [],
      "name": "reserveTokens",
      "outputs": [
        {
          "internalType": "uint256",
          "name": "",
          "type": "uint256"
        }
      ],
      "stateMutability": "view",
      "type": "function",
      "constant": true
    },
    {
      "inputs": [
        {
          "internalType": "address",
          "name": "from",
          "type": "address"
        },
        {
          "internalType": "address",
          "name": "to",
          "type": "address"
        },
        {
          "internalType": "uint256",
          "name": "tokenId",
          "type": "uint256"
        }
      ],
      "name": "safeTransferFrom",
      "outputs": [],
      "stateMutability": "nonpayable",
      "type": "function"
    },
    {
      "inputs": [
        {
          "internalType": "address",
          "name": "from",
          "type": "address"
        },
        {
          "internalType": "address",
          "name": "to",
          "type": "address"
        },
        {
          "internalType": "uint256",
          "name": "tokenId",
          "type": "uint256"
        },
        {
          "internalType": "bytes",
          "name": "_data",
          "type": "bytes"
        }
      ],
      "name": "safeTransferFrom",
      "outputs": [],
      "stateMutability": "nonpayable",
      "type": "function"
    },
    {
      "inputs": [],
      "name": "saleIsActive",
      "outputs": [
        {
          "internalType": "bool",
          "name": "",
          "type": "bool"
        }
      ],
      "stateMutability": "view",
      "type": "function",
      "constant": true
    },
    {
      "inputs": [],
      "name": "secondPresaleLimit",
      "outputs": [
        {
          "internalType": "uint256",
          "name": "",
          "type": "uint256"
        }
      ],
      "stateMutability": "view",
      "type": "function",
      "constant": true
    },
    {
      "inputs": [
        {
          "internalType": "address",
          "name": "operator",
          "type": "address"
        },
        {
          "internalType": "bool",
          "name": "approved",
          "type": "bool"
        }
      ],
      "name": "setApprovalForAll",
      "outputs": [],
      "stateMutability": "nonpayable",
      "type": "function"
    },
    {
      "inputs": [
        {
          "internalType": "bytes4",
          "name": "interfaceId",
          "type": "bytes4"
        }
      ],
      "name": "supportsInterface",
      "outputs": [
        {
          "internalType": "bool",
          "name": "",
          "type": "bool"
        }
      ],
      "stateMutability": "view",
      "type": "function",
      "constant": true
    },
    {
      "inputs": [],
      "name": "symbol",
      "outputs": [
        {
          "internalType": "string",
          "name": "",
          "type": "string"
        }
      ],
      "stateMutability": "view",
      "type": "function",
      "constant": true
    },
    {
      "inputs": [
        {
          "internalType": "uint256",
          "name": "index",
          "type": "uint256"
        }
      ],
      "name": "tokenByIndex",
      "outputs": [
        {
          "internalType": "uint256",
          "name": "",
          "type": "uint256"
        }
      ],
      "stateMutability": "view",
      "type": "function",
      "constant": true
    },
    {
      "inputs": [
        {
          "internalType": "address",
          "name": "owner",
          "type": "address"
        },
        {
          "internalType": "uint256",
          "name": "index",
          "type": "uint256"
        }
      ],
      "name": "tokenOfOwnerByIndex",
      "outputs": [
        {
          "internalType": "uint256",
          "name": "",
          "type": "uint256"
        }
      ],
      "stateMutability": "view",
      "type": "function",
      "constant": true
    },
    {
      "inputs": [],
      "name": "tokenPrice",
      "outputs": [
        {
          "internalType": "uint256",
          "name": "",
          "type": "uint256"
        }
      ],
      "stateMutability": "view",
      "type": "function",
      "constant": true
    },
    {
      "inputs": [],
      "name": "totalSupply",
      "outputs": [
        {
          "internalType": "uint256",
          "name": "",
          "type": "uint256"
        }
      ],
      "stateMutability": "view",
      "type": "function",
      "constant": true
    },
    {
      "inputs": [
        {
          "internalType": "address",
          "name": "from",
          "type": "address"
        },
        {
          "internalType": "address",
          "name": "to",
          "type": "address"
        },
        {
          "internalType": "uint256",
          "name": "tokenId",
          "type": "uint256"
        }
      ],
      "name": "transferFrom",
      "outputs": [],
      "stateMutability": "nonpayable",
      "type": "function"
    },
    {
      "inputs": [
        {
          "internalType": "address",
          "name": "newOwner",
          "type": "address"
        }
      ],
      "name": "transferOwnership",
      "outputs": [],
      "stateMutability": "nonpayable",
      "type": "function"
    },
    {
      "inputs": [
        {
          "internalType": "uint256",
          "name": "numberOfTokens",
          "type": "uint256"
        }
      ],
      "name": "buyTokens",
      "outputs": [],
      "stateMutability": "payable",
      "type": "function",
      "payable": true
    },
    {
      "inputs": [],
      "name": "metadataURI",
      "outputs": [
        {
          "internalType": "string",
          "name": "",
          "type": "string"
        }
      ],
      "stateMutability": "view",
      "type": "function",
      "constant": true
    },
    {
      "inputs": [
        {
          "internalType": "address",
          "name": "_owner",
          "type": "address"
        }
      ],
      "name": "tokensOfOwner",
      "outputs": [
        {
          "internalType": "uint256[]",
          "name": "",
          "type": "uint256[]"
        }
      ],
      "stateMutability": "view",
      "type": "function",
      "constant": true
    },
    {
      "inputs": [
        {
          "internalType": "address",
          "name": "user",
          "type": "address"
        }
      ],
      "name": "isInFirstPresale",
      "outputs": [
        {
          "internalType": "bool",
          "name": "answer",
          "type": "bool"
        }
      ],
      "stateMutability": "view",
      "type": "function",
      "constant": true
    },
    {
      "inputs": [
        {
          "internalType": "address",
          "name": "user",
          "type": "address"
        }
      ],
      "name": "isInSecondPresale",
      "outputs": [
        {
          "internalType": "bool",
          "name": "answer",
          "type": "bool"
        }
      ],
      "stateMutability": "view",
      "type": "function",
      "constant": true
    },
    {
      "inputs": [
        {
          "internalType": "uint256",
          "name": "_tokenId",
          "type": "uint256"
        }
      ],
      "name": "tokenURI",
      "outputs": [
        {
          "internalType": "string",
          "name": "",
          "type": "string"
        }
      ],
      "stateMutability": "view",
      "type": "function",
      "constant": true
    },
    {
      "inputs": [
        {
          "internalType": "address[]",
          "name": "addresses",
          "type": "address[]"
        }
      ],
      "name": "setFirstPresaleList",
      "outputs": [],
      "stateMutability": "nonpayable",
      "type": "function"
    },
    {
      "inputs": [
        {
          "internalType": "address[]",
          "name": "addresses",
          "type": "address[]"
        }
      ],
      "name": "setSecondPresaleList",
      "outputs": [],
      "stateMutability": "nonpayable",
      "type": "function"
    },
    {
      "inputs": [
        {
          "internalType": "uint256",
          "name": "newPrice",
          "type": "uint256"
        }
      ],
      "name": "changeTokenPrice",
      "outputs": [],
      "stateMutability": "nonpayable",
      "type": "function"
    },
    {
      "inputs": [],
      "name": "startFirstPresale",
      "outputs": [],
      "stateMutability": "nonpayable",
      "type": "function"
    },
    {
      "inputs": [],
      "name": "startSecondPresale",
      "outputs": [],
      "stateMutability": "nonpayable",
      "type": "function"
    },
    {
      "inputs": [
        {
          "internalType": "uint256",
          "name": "amount",
          "type": "uint256"
        }
      ],
      "name": "changeFirstPresaleLimit",
      "outputs": [],
      "stateMutability": "nonpayable",
      "type": "function"
    },
    {
      "inputs": [
        {
          "internalType": "uint256",
          "name": "amount",
          "type": "uint256"
        }
      ],
      "name": "changeSecondPresaleLimit",
      "outputs": [],
      "stateMutability": "nonpayable",
      "type": "function"
    },
    {
      "inputs": [],
      "name": "startPublicSale",
      "outputs": [],
      "stateMutability": "nonpayable",
      "type": "function"
    },
    {
      "inputs": [
        {
          "internalType": "string",
          "name": "finalHash",
          "type": "string"
        },
        {
          "internalType": "string",
          "name": "metadataHash",
          "type": "string"
        }
      ],
      "name": "revealMetadata",
      "outputs": [],
      "stateMutability": "nonpayable",
      "type": "function"
    },
    {
      "inputs": [
        {
          "internalType": "uint256",
          "name": "amount",
          "type": "uint256"
        }
      ],
      "name": "changeMaxPurchase",
      "outputs": [],
      "stateMutability": "nonpayable",
      "type": "function"
    },
    {
      "inputs": [],
      "name": "withdrawAll",
      "outputs": [],
      "stateMutability": "nonpayable",
      "type": "function"
    },
    {
      "inputs": [
        {
          "internalType": "string",
          "name": "baseURI",
          "type": "string"
        }
      ],
      "name": "setBaseURI",
      "outputs": [],
      "stateMutability": "nonpayable",
      "type": "function"
    },
    {
      "inputs": [],
      "name": "switchDotJson",
      "outputs": [],
      "stateMutability": "nonpayable",
      "type": "function"
    },
    {
      "inputs": [],
      "name": "flipSaleIsActive",
      "outputs": [],
      "stateMutability": "nonpayable",
      "type": "function"
    },
    {
      "inputs": [],
      "name": "getReserves",
      "outputs": [],
      "stateMutability": "nonpayable",
      "type": "function"
    }
  ],
  "bytecode": "0x60806040526014600d819055666a94d74f430000600e556011805461ffff19169055805462ffffff19169055600360175560016018556000601955601a805460ff191690553480156200005157600080fd5b50604080518082018252600f81526e5465737446757475726550756e6b7360881b60208083019182528351808501909452600384526205446560ec1b908401528151919291620000a49160009162000133565b508051620000ba90600190602084019062000133565b505050620000d7620000d1620000dd60201b60201c565b620000e1565b62000216565b3390565b600c80546001600160a01b038381166001600160a01b0319831681179093556040519116919082907f8be0079c531659141344cd1fd0a4f28419497f9722a3daafe3b4186f6b6457e090600090a35050565b8280546200014190620001d9565b90600052602060002090601f016020900481019282620001655760008555620001b0565b82601f106200018057805160ff1916838001178555620001b0565b82800160010185558215620001b0579182015b82811115620001b057825182559160200191906001019062000193565b50620001be929150620001c2565b5090565b5b80821115620001be5760008155600101620001c3565b600181811c90821680620001ee57607f821691505b602082108114156200021057634e487b7160e01b600052602260045260246000fd5b50919050565b6130fa80620002266000396000f3fe6080604052600436106103815760003560e01c8063715018a6116101d1578063c87b56dd11610102578063ed06f66b116100a0578063f54776531161006f578063f5477653146109d7578063f5b1549f146109f7578063fbc94f2414610a17578063ff77a47a14610a3757600080fd5b8063ed06f66b1461096d578063eebeccf714610982578063f2e94c96146109a2578063f2fde38b146109b757600080fd5b8063dcc7ba24116100dc578063dcc7ba24146108cb578063e777a903146108e5578063e985e9c514610905578063eb8d24441461094e57600080fd5b8063c87b56dd14610875578063c963483c14610895578063d24f0757146108ab57600080fd5b80638da5cb5b1161016f578063977b055b11610149578063977b055b14610809578063a22cb4651461081f578063b5077f441461083f578063b88d4fde1461085557600080fd5b80638da5cb5b146107c157806395d89b41146107df578063975dec3b146107f457600080fd5b80637ff9b596116101ab5780637ff9b5961461075457806383b96a641461076a5780638462151c1461077f578063853828b6146107ac57600080fd5b8063715018a61461070a57806374be92971461071f5780637f6567f71461073457600080fd5b806327ac36c4116102b65780634f6ccce7116102545780636352211e116102235780636352211e1461069b57806365ccea70146106bb5780636c0360eb146106d557806370a08231146106ea57600080fd5b80634f6ccce71461060e5780634f8cfb4a1461062e57806355f804b31461064e5780635f08fb151461066e57600080fd5b80633e2164a6116102905780633e2164a61461058c57806342842e0e146105ac57806342cc5d25146105cc5780634d736629146105e157600080fd5b806327ac36c4146105445780632f745c59146105595780633610724e1461057957600080fd5b80630c1c972a1161032357806313020c0b116102fd57806313020c0b146104d957806318160ddd146104f9578063208c1f351461050e57806323b872dd1461052457600080fd5b80630c1c972a14610485578063114b8d2b1461049a578063121f16f3146104b957600080fd5b8063081812fc1161035f578063081812fc146103f25780630902f1ac1461042a578063095ea7b3146104415780630b53d7ae1461046157600080fd5b806301ffc9a71461038657806303ee438c146103bb57806306fdde03146103dd575b600080fd5b34801561039257600080fd5b506103a66103a1366004612bac565b610a57565b60405190151581526020015b60405180910390f35b3480156103c757600080fd5b506103d0610a82565b6040516103b29190612e5e565b3480156103e957600080fd5b506103d0610aaa565b3480156103fe57600080fd5b5061041261040d366004612c78565b610b3c565b6040516001600160a01b0390911681526020016103b2565b34801561043657600080fd5b5061043f610bd6565b005b34801561044d57600080fd5b5061043f61045c366004612ad4565b610cb7565b34801561046d57600080fd5b5061047760185481565b6040519081526020016103b2565b34801561049157600080fd5b5061043f610dcd565b3480156104a657600080fd5b506014546103a690610100900460ff1681565b3480156104c557600080fd5b506104126104d4366004612c78565b610e0a565b3480156104e557600080fd5b5061043f6104f4366004612c78565b610e34565b34801561050557600080fd5b50600a54610477565b34801561051a57600080fd5b5061047760175481565b34801561053057600080fd5b5061043f61053f3660046129e6565b610e63565b34801561055057600080fd5b50610477603281565b34801561056557600080fd5b50610477610574366004612ad4565b610e94565b61043f610587366004612c78565b610f2a565b34801561059857600080fd5b506104126105a7366004612c78565b6113fc565b3480156105b857600080fd5b5061043f6105c73660046129e6565b61140c565b3480156105d857600080fd5b506103d0611427565b3480156105ed57600080fd5b506104776105fc36600461299a565b60156020526000908152604090205481565b34801561061a57600080fd5b50610477610629366004612c78565b6114b5565b34801561063a57600080fd5b506014546103a69062010000900460ff1681565b34801561065a57600080fd5b5061043f610669366004612be4565b611556565b34801561067a57600080fd5b5061047761068936600461299a565b60166020526000908152604090205481565b3480156106a757600080fd5b506104126106b6366004612c78565b611589565b3480156106c757600080fd5b506014546103a69060ff1681565b3480156106e157600080fd5b506103d0611600565b3480156106f657600080fd5b5061047761070536600461299a565b61160f565b34801561071657600080fd5b5061043f611696565b34801561072b57600080fd5b5061043f6116cc565b34801561074057600080fd5b5061043f61074f366004612c78565b611707565b34801561076057600080fd5b50610477600e5481565b34801561077657600080fd5b5061043f611736565b34801561078b57600080fd5b5061079f61079a36600461299a565b61178b565b6040516103b29190612e1a565b3480156107b857600080fd5b5061043f611866565b3480156107cd57600080fd5b50600c546001600160a01b0316610412565b3480156107eb57600080fd5b506103d06118bf565b34801561080057600080fd5b5061043f6118ce565b34801561081557600080fd5b50610477600d5481565b34801561082b57600080fd5b5061043f61083a366004612a9a565b611907565b34801561084b57600080fd5b50610477611e6181565b34801561086157600080fd5b5061043f610870366004612a21565b6119cc565b34801561088157600080fd5b506103d0610890366004612c78565b611a04565b3480156108a157600080fd5b5061047760195481565b3480156108b757600080fd5b5061043f6108c6366004612c17565b611a76565b3480156108d757600080fd5b506011546103a69060ff1681565b3480156108f157600080fd5b5061043f610900366004612c78565b611b4c565b34801561091157600080fd5b506103a66109203660046129b4565b6001600160a01b03918216600090815260066020908152604080832093909416825291909152205460ff1690565b34801561095a57600080fd5b506011546103a690610100900460ff1681565b34801561097957600080fd5b5061043f611b7b565b34801561098e57600080fd5b5061043f61099d366004612afd565b611bb6565b3480156109ae57600080fd5b506103d0611bf3565b3480156109c357600080fd5b5061043f6109d236600461299a565b611c00565b3480156109e357600080fd5b506103a66109f236600461299a565b611c98565b348015610a0357600080fd5b506103a6610a1236600461299a565b611d10565b348015610a2357600080fd5b5061043f610a32366004612c78565b611d7f565b348015610a4357600080fd5b5061043f610a52366004612afd565b611dae565b60006001600160e01b0319821663780e9d6360e01b1480610a7c5750610a7c82611deb565b92915050565b60606010604051602001610a969190612d2a565b604051602081830303815290604052905090565b606060008054610ab990613008565b80601f0160208091040260200160405190810160405280929190818152602001828054610ae590613008565b8015610b325780601f10610b0757610100808354040283529160200191610b32565b820191906000526020600020905b815481529060010190602001808311610b1557829003601f168201915b5050505050905090565b6000818152600360205260408120546001600160a01b0316610bba5760405162461bcd60e51b815260206004820152602c60248201527f4552433732313a20617070726f76656420717565727920666f72206e6f6e657860448201526b34b9ba32b73a103a37b5b2b760a11b60648201526084015b60405180910390fd5b506000908152600560205260409020546001600160a01b031690565b600c546001600160a01b03163314610c005760405162461bcd60e51b8152600401610bb190612ec3565b601154610100900460ff1615610c765760405162461bcd60e51b815260206004820152603560248201527f46757475726550756e6b733a2052657365727665732074616b656e20616e642060448201527473616c65207374617274656420616c72656164792160581b6064820152608401610bb1565b60005b6019811015610cb457601954611e61610c91600a5490565b1015610ca157610ca13382611e3b565b5080610cac8161303d565b915050610c79565b50565b6000610cc282611589565b9050806001600160a01b0316836001600160a01b03161415610d305760405162461bcd60e51b815260206004820152602160248201527f4552433732313a20617070726f76616c20746f2063757272656e74206f776e656044820152603960f91b6064820152608401610bb1565b336001600160a01b0382161480610d4c5750610d4c8133610920565b610dbe5760405162461bcd60e51b815260206004820152603860248201527f4552433732313a20617070726f76652063616c6c6572206973206e6f74206f7760448201527f6e6572206e6f7220617070726f76656420666f7220616c6c00000000000000006064820152608401610bb1565b610dc88383611e55565b505050565b600c546001600160a01b03163314610df75760405162461bcd60e51b8152600401610bb190612ec3565b6014805462ffff00191662010000179055565b60138181548110610e1a57600080fd5b6000918252602090912001546001600160a01b0316905081565b600c546001600160a01b03163314610e5e5760405162461bcd60e51b8152600401610bb190612ec3565b601855565b610e6d3382611ec3565b610e895760405162461bcd60e51b8152600401610bb190612ef8565b610dc8838383611fba565b6000610e9f8361160f565b8210610f015760405162461bcd60e51b815260206004820152602b60248201527f455243373231456e756d657261626c653a206f776e657220696e646578206f7560448201526a74206f6620626f756e647360a81b6064820152608401610bb1565b506001600160a01b03919091166000908152600860209081526040808320938352929052205490565b601154610100900460ff16610f815760405162461bcd60e51b815260206004820152601b60248201527f53616c65206d7573742062652061637469766520746f206d696e7400000000006044820152606401610bb1565b60145460ff1680610f995750601454610100900460ff165b80610fac575060145462010000900460ff165b610fed5760405162461bcd60e51b81526020600482015260126024820152716e6f2070686173652069732061637469766560701b6044820152606401610bb1565b600081118015610fff5750600d548111155b6110575760405162461bcd60e51b815260206004820152602360248201527f4e6f742077697468696e207468652072616e6765206f66206d6178507572636860448201526261736560e81b6064820152608401610bb1565b611e6181611064600a5490565b61106e9190612f7a565b11156110d45760405162461bcd60e51b815260206004820152602f60248201527f507572636861736520776f756c6420657863656564206d617820737570706c7960448201526e206f662046757475726550756e6b7360881b6064820152608401610bb1565b80600e546110e29190612fa6565b3410156111315760405162461bcd60e51b815260206004820152601f60248201527f45746865722076616c75652073656e74206973206e6f7420636f7272656374006044820152606401610bb1565b60145460ff161515600114156112585761114a33611c98565b6111905760405162461bcd60e51b81526020600482015260176024820152761d5cd95c881a5cc81b9bdd081dda1a5d195b1a5cdd1959604a1b6044820152606401610bb1565b336000908152601560205260409020546017546111ad8383612f7a565b11156111fb5760405162461bcd60e51b815260206004820152601c60248201527f6d6178204e4654207065722061646472657373206578636565646564000000006044820152606401610bb1565b60005b82811015610dc8576019543360009081526015602052604081208054916112248361303d565b9190505550611e61611235600a5490565b1015611245576112453382611e3b565b50806112508161303d565b9150506111fe565b60145460ff610100909104161515600114156113855761127733611d10565b6112bd5760405162461bcd60e51b81526020600482015260176024820152761d5cd95c881a5cc81b9bdd081dda1a5d195b1a5cdd1959604a1b6044820152606401610bb1565b336000908152601660205260409020546018546112da8383612f7a565b11156113285760405162461bcd60e51b815260206004820152601c60248201527f6d6178204e4654207065722061646472657373206578636565646564000000006044820152606401610bb1565b60005b82811015610dc8576019543360009081526016602052604081208054916113518361303d565b9190505550611e61611362600a5490565b1015611372576113723382611e3b565b508061137d8161303d565b91505061132b565b60145462010000900460ff16151560011415610cb45760005b818110156113f8576019543360009081526016602052604081208054916113c48361303d565b9190505550611e616113d5600a5490565b10156113e5576113e53382611e3b565b50806113f08161303d565b91505061139e565b5050565b60128181548110610e1a57600080fd5b610dc8838383604051806020016040528060008152506119cc565b600f805461143490613008565b80601f016020809104026020016040519081016040528092919081815260200182805461146090613008565b80156114ad5780601f10611482576101008083540402835291602001916114ad565b820191906000526020600020905b81548152906001019060200180831161149057829003601f168201915b505050505081565b60006114c0600a5490565b82106115235760405162461bcd60e51b815260206004820152602c60248201527f455243373231456e756d657261626c653a20676c6f62616c20696e646578206f60448201526b7574206f6620626f756e647360a01b6064820152608401610bb1565b600a828154811061154457634e487b7160e01b600052603260045260246000fd5b90600052602060002001549050919050565b600c546001600160a01b031633146115805760405162461bcd60e51b8152600401610bb190612ec3565b610cb481612165565b6000818152600360205260408120546001600160a01b031680610a7c5760405162461bcd60e51b815260206004820152602960248201527f4552433732313a206f776e657220717565727920666f72206e6f6e657869737460448201526832b73a103a37b5b2b760b91b6064820152608401610bb1565b606060028054610ab990613008565b60006001600160a01b03821661167a5760405162461bcd60e51b815260206004820152602a60248201527f4552433732313a2062616c616e636520717565727920666f7220746865207a65604482015269726f206164647265737360b01b6064820152608401610bb1565b506001600160a01b031660009081526004602052604090205490565b600c546001600160a01b031633146116c05760405162461bcd60e51b8152600401610bb190612ec3565b6116ca6000612178565b565b600c546001600160a01b031633146116f65760405162461bcd60e51b8152600401610bb190612ec3565b6014805461ffff1916610100179055565b600c546001600160a01b031633146117315760405162461bcd60e51b8152600401610bb190612ec3565b600d55565b600c546001600160a01b031633146117605760405162461bcd60e51b8152600401610bb190612ec3565b601a5460ff1615156001141561177c57601a805460ff19169055565b601a805460ff19166001179055565b606060006117988361160f565b9050806117b95760408051600080825260208201909252905b509392505050565b60008167ffffffffffffffff8111156117e257634e487b7160e01b600052604160045260246000fd5b60405190808252806020026020018201604052801561180b578160200160208202803683370190505b50905060005b828110156117b1576118238582610e94565b82828151811061184357634e487b7160e01b600052603260045260246000fd5b6020908102919091010152806118588161303d565b915050611811565b50919050565b600c546001600160a01b031633146118905760405162461bcd60e51b8152600401610bb190612ec3565b6040514790339082156108fc029083906000818181858888f193505050501580156113f8573d6000803e3d6000fd5b606060018054610ab990613008565b600c546001600160a01b031633146118f85760405162461bcd60e51b8152600401610bb190612ec3565b6014805460ff19166001179055565b6001600160a01b0382163314156119605760405162461bcd60e51b815260206004820152601960248201527f4552433732313a20617070726f766520746f2063616c6c6572000000000000006044820152606401610bb1565b3360008181526006602090815260408083206001600160a01b03871680855290835292819020805460ff191686151590811790915590519081529192917f17307eab39ab6107e8899845ad3d59bd9653f200f220920489ca2b5937696c31910160405180910390a35050565b6119d63383611ec3565b6119f25760405162461bcd60e51b8152600401610bb190612ef8565b6119fe848484846121ca565b50505050565b601a5460609060ff16151560011415611a4f57611a1f611600565b611a28836121fd565b604051602001611a39929190612ceb565b6040516020818303038152906040529050919050565b611a57611600565b611a60836121fd565b604051602001611a39929190612cbc565b919050565b600c546001600160a01b03163314611aa05760405162461bcd60e51b8152600401610bb190612ec3565b60115460ff16151560011415611b135760405162461bcd60e51b815260206004820152603260248201527f46757475726550756e6b733a20596f7527766520616c72656164792072657665604482015271616c656420746865206d657461646174612160701b6064820152608401610bb1565b8151611b2690600f906020850190612817565b508051611b3a906010906020840190612817565b50506011805460ff1916600117905550565b600c546001600160a01b03163314611b765760405162461bcd60e51b8152600401610bb190612ec3565b601755565b600c546001600160a01b03163314611ba55760405162461bcd60e51b8152600401610bb190612ec3565b6011805461ff001916610100179055565b600c546001600160a01b03163314611be05760405162461bcd60e51b8152600401610bb190612ec3565b80516113f890601290602084019061289b565b6010805461143490613008565b600c546001600160a01b03163314611c2a5760405162461bcd60e51b8152600401610bb190612ec3565b6001600160a01b038116611c8f5760405162461bcd60e51b815260206004820152602660248201527f4f776e61626c653a206e6577206f776e657220697320746865207a65726f206160448201526564647265737360d01b6064820152608401610bb1565b610cb481612178565b6000805b601254811015611d0757826001600160a01b031660128281548110611cd157634e487b7160e01b600052603260045260246000fd5b6000918252602090912001546001600160a01b03161415611cf55750600192915050565b80611cff8161303d565b915050611c9c565b50600092915050565b6000805b601254811015611d0757826001600160a01b031660138281548110611d4957634e487b7160e01b600052603260045260246000fd5b6000918252602090912001546001600160a01b03161415611d6d5750600192915050565b80611d778161303d565b915050611d14565b600c546001600160a01b03163314611da95760405162461bcd60e51b8152600401610bb190612ec3565b600e55565b600c546001600160a01b03163314611dd85760405162461bcd60e51b8152600401610bb190612ec3565b80516113f890601390602084019061289b565b60006001600160e01b031982166380ac58cd60e01b1480611e1c57506001600160e01b03198216635b5e139f60e01b145b80610a7c57506301ffc9a760e01b6001600160e01b0319831614610a7c565b6113f8828260405180602001604052806000815250612317565b600081815260056020526040902080546001600160a01b0319166001600160a01b0384169081179091558190611e8a82611589565b6001600160a01b03167f8c5be1e5ebec7d5bd14f71427d1e84f3dd0314c0f7b2291e5b200ac8c7c3b92560405160405180910390a45050565b6000818152600360205260408120546001600160a01b0316611f3c5760405162461bcd60e51b815260206004820152602c60248201527f4552433732313a206f70657261746f7220717565727920666f72206e6f6e657860448201526b34b9ba32b73a103a37b5b2b760a11b6064820152608401610bb1565b6000611f4783611589565b9050806001600160a01b0316846001600160a01b03161480611f825750836001600160a01b0316611f7784610b3c565b6001600160a01b0316145b80611fb257506001600160a01b0380821660009081526006602090815260408083209388168352929052205460ff165b949350505050565b826001600160a01b0316611fcd82611589565b6001600160a01b0316146120355760405162461bcd60e51b815260206004820152602960248201527f4552433732313a207472616e73666572206f6620746f6b656e2074686174206960448201526839903737ba1037bbb760b91b6064820152608401610bb1565b6001600160a01b0382166120975760405162461bcd60e51b8152602060048201526024808201527f4552433732313a207472616e7366657220746f20746865207a65726f206164646044820152637265737360e01b6064820152608401610bb1565b6120a283838361234a565b6120ad600082611e55565b6001600160a01b03831660009081526004602052604081208054600192906120d6908490612fc5565b90915550506001600160a01b0382166000908152600460205260408120805460019290612104908490612f7a565b909155505060008181526003602052604080822080546001600160a01b0319166001600160a01b0386811691821790925591518493918716917fddf252ad1be2c89b69c2b068fc378daa952ba7f163c4a11628f55a4df523b3ef91a4505050565b80516113f8906002906020840190612817565b600c80546001600160a01b038381166001600160a01b0319831681179093556040519116919082907f8be0079c531659141344cd1fd0a4f28419497f9722a3daafe3b4186f6b6457e090600090a35050565b6121d5848484611fba565b6121e184848484612402565b6119fe5760405162461bcd60e51b8152600401610bb190612e71565b6060816122215750506040805180820190915260018152600360fc1b602082015290565b8160005b811561224b57806122358161303d565b91506122449050600a83612f92565b9150612225565b60008167ffffffffffffffff81111561227457634e487b7160e01b600052604160045260246000fd5b6040519080825280601f01601f19166020018201604052801561229e576020820181803683370190505b5090505b8415611fb2576122b3600183612fc5565b91506122c0600a86613058565b6122cb906030612f7a565b60f81b8183815181106122ee57634e487b7160e01b600052603260045260246000fd5b60200101906001600160f81b031916908160001a905350612310600a86612f92565b94506122a2565b612321838361250f565b61232e6000848484612402565b610dc85760405162461bcd60e51b8152600401610bb190612e71565b6001600160a01b0383166123a5576123a081600a80546000838152600b60205260408120829055600182018355919091527fc65a7bb8d6351c1cf70c95a316cc6a92839c986682d98bc35f958f4883f9d2a80155565b6123c8565b816001600160a01b0316836001600160a01b0316146123c8576123c8838261265d565b6001600160a01b0382166123df57610dc8816126fa565b826001600160a01b0316826001600160a01b031614610dc857610dc882826127d3565b60006001600160a01b0384163b1561250457604051630a85bd0160e11b81526001600160a01b0385169063150b7a0290612446903390899088908890600401612ddd565b602060405180830381600087803b15801561246057600080fd5b505af1925050508015612490575060408051601f3d908101601f1916820190925261248d91810190612bc8565b60015b6124ea573d8080156124be576040519150601f19603f3d011682016040523d82523d6000602084013e6124c3565b606091505b5080516124e25760405162461bcd60e51b8152600401610bb190612e71565b805181602001fd5b6001600160e01b031916630a85bd0160e11b149050611fb2565b506001949350505050565b6001600160a01b0382166125655760405162461bcd60e51b815260206004820181905260248201527f4552433732313a206d696e7420746f20746865207a65726f20616464726573736044820152606401610bb1565b6000818152600360205260409020546001600160a01b0316156125ca5760405162461bcd60e51b815260206004820152601c60248201527f4552433732313a20746f6b656e20616c7265616479206d696e746564000000006044820152606401610bb1565b6125d66000838361234a565b6001600160a01b03821660009081526004602052604081208054600192906125ff908490612f7a565b909155505060008181526003602052604080822080546001600160a01b0319166001600160a01b03861690811790915590518392907fddf252ad1be2c89b69c2b068fc378daa952ba7f163c4a11628f55a4df523b3ef908290a45050565b6000600161266a8461160f565b6126749190612fc5565b6000838152600960205260409020549091508082146126c7576001600160a01b03841660009081526008602090815260408083208584528252808320548484528184208190558352600990915290208190555b5060009182526009602090815260408084208490556001600160a01b039094168352600881528383209183525290812055565b600a5460009061270c90600190612fc5565b6000838152600b6020526040812054600a805493945090928490811061274257634e487b7160e01b600052603260045260246000fd5b9060005260206000200154905080600a838154811061277157634e487b7160e01b600052603260045260246000fd5b6000918252602080832090910192909255828152600b9091526040808220849055858252812055600a8054806127b757634e487b7160e01b600052603160045260246000fd5b6001900381819060005260206000200160009055905550505050565b60006127de8361160f565b6001600160a01b039093166000908152600860209081526040808320868452825280832085905593825260099052919091209190915550565b82805461282390613008565b90600052602060002090601f016020900481019282612845576000855561288b565b82601f1061285e57805160ff191683800117855561288b565b8280016001018555821561288b579182015b8281111561288b578251825591602001919060010190612870565b506128979291506128f0565b5090565b82805482825590600052602060002090810192821561288b579160200282015b8281111561288b57825182546001600160a01b0319166001600160a01b039091161782556020909201916001909101906128bb565b5b8082111561289757600081556001016128f1565b600067ffffffffffffffff83111561291f5761291f613098565b612932601f8401601f1916602001612f49565b905082815283838301111561294657600080fd5b828260208301376000602084830101529392505050565b80356001600160a01b0381168114611a7157600080fd5b600082601f830112612984578081fd5b61299383833560208501612905565b9392505050565b6000602082840312156129ab578081fd5b6129938261295d565b600080604083850312156129c6578081fd5b6129cf8361295d565b91506129dd6020840161295d565b90509250929050565b6000806000606084860312156129fa578081fd5b612a038461295d565b9250612a116020850161295d565b9150604084013590509250925092565b60008060008060808587031215612a36578081fd5b612a3f8561295d565b9350612a4d6020860161295d565b925060408501359150606085013567ffffffffffffffff811115612a6f578182fd5b8501601f81018713612a7f578182fd5b612a8e87823560208401612905565b91505092959194509250565b60008060408385031215612aac578182fd5b612ab58361295d565b915060208301358015158114612ac9578182fd5b809150509250929050565b60008060408385031215612ae6578182fd5b612aef8361295d565b946020939093013593505050565b60006020808385031215612b0f578182fd5b823567ffffffffffffffff80821115612b26578384fd5b818501915085601f830112612b39578384fd5b813581811115612b4b57612b4b613098565b8060051b9150612b5c848301612f49565b8181528481019084860184860187018a1015612b76578788fd5b8795505b83861015612b9f57612b8b8161295d565b835260019590950194918601918601612b7a565b5098975050505050505050565b600060208284031215612bbd578081fd5b8135612993816130ae565b600060208284031215612bd9578081fd5b8151612993816130ae565b600060208284031215612bf5578081fd5b813567ffffffffffffffff811115612c0b578182fd5b611fb284828501612974565b60008060408385031215612c29578182fd5b823567ffffffffffffffff80821115612c40578384fd5b612c4c86838701612974565b93506020850135915080821115612c61578283fd5b50612c6e85828601612974565b9150509250929050565b600060208284031215612c89578081fd5b5035919050565b60008151808452612ca8816020860160208601612fdc565b601f01601f19169290920160200192915050565b60008351612cce818460208801612fdc565b835190830190612ce2818360208801612fdc565b01949350505050565b60008351612cfd818460208801612fdc565b835190830190612d11818360208801612fdc565b64173539b7b760d91b9101908152600501949350505050565b66697066733a2f2f60c81b81526000600781845483600182811c915080831680612d5557607f831692505b6020808410821415612d7557634e487b7160e01b88526022600452602488fd5b818015612d895760018114612d9e57612dce565b60ff1986168a890152848a0188019650612dce565b60008b815260209020895b86811015612dc45781548c82018b0152908501908301612da9565b505087858b010196505b50949998505050505050505050565b6001600160a01b0385811682528416602082015260408101839052608060608201819052600090612e1090830184612c90565b9695505050505050565b6020808252825182820181905260009190848201906040850190845b81811015612e5257835183529284019291840191600101612e36565b50909695505050505050565b6020815260006129936020830184612c90565b60208082526032908201527f4552433732313a207472616e7366657220746f206e6f6e20455243373231526560408201527131b2b4bb32b91034b6b83632b6b2b73a32b960711b606082015260800190565b6020808252818101527f4f776e61626c653a2063616c6c6572206973206e6f7420746865206f776e6572604082015260600190565b60208082526031908201527f4552433732313a207472616e736665722063616c6c6572206973206e6f74206f6040820152701ddb995c881b9bdc88185c1c1c9bdd9959607a1b606082015260800190565b604051601f8201601f1916810167ffffffffffffffff81118282101715612f7257612f72613098565b604052919050565b60008219821115612f8d57612f8d61306c565b500190565b600082612fa157612fa1613082565b500490565b6000816000190483118215151615612fc057612fc061306c565b500290565b600082821015612fd757612fd761306c565b500390565b60005b83811015612ff7578181015183820152602001612fdf565b838111156119fe5750506000910152565b600181811c9082168061301c57607f821691505b6020821081141561186057634e487b7160e01b600052602260045260246000fd5b60006000198214156130515761305161306c565b5060010190565b60008261306757613067613082565b500690565b634e487b7160e01b600052601160045260246000fd5b634e487b7160e01b600052601260045260246000fd5b634e487b7160e01b600052604160045260246000fd5b6001600160e01b031981168114610cb457600080fdfea2646970667358221220dafe0e71cc9dac04234cf0ae2040db37f76a2473dbe6f552ea68672928c8170864736f6c63430008040033",
  "immutableReferences": {},
  "source": "// SPDX-License-Identifier: MIT\n\npragma solidity ^0.8.0;\n\n/**\n * @dev Interface of the ERC165 standard, as defined in the\n * https://eips.ethereum.org/EIPS/eip-165[EIP].\n *\n * Implementers can declare support of contract interfaces, which can then be\n * queried by others ({ERC165Checker}).\n *\n * For an implementation, see {ERC165}.\n */\ninterface IERC165 {\n    /**\n     * @dev Returns true if this contract implements the interface defined by\n     * `interfaceId`. See the corresponding\n     * https://eips.ethereum.org/EIPS/eip-165#how-interfaces-are-identified[EIP section]\n     * to learn more about how these ids are created.\n     *\n     * This function call must use less than 30 000 gas.\n     */\n    function supportsInterface(bytes4 interfaceId) external view returns (bool);\n}\n\n/**\n * @dev Required interface of an ERC721 compliant contract.\n */\ninterface IERC721 is IERC165 {\n    /**\n     * @dev Emitted when `tokenId` token is transferred from `from` to `to`.\n     */\n    event Transfer(address indexed from, address indexed to, uint256 indexed tokenId);\n\n    /**\n     * @dev Emitted when `owner` enables `approved` to manage the `tokenId` token.\n     */\n    event Approval(address indexed owner, address indexed approved, uint256 indexed tokenId);\n\n    /**\n     * @dev Emitted when `owner` enables or disables (`approved`) `operator` to manage all of its assets.\n     */\n    event ApprovalForAll(address indexed owner, address indexed operator, bool approved);\n\n    /**\n     * @dev Returns the number of tokens in ``owner``'s account.\n     */\n    function balanceOf(address owner) external view returns (uint256 balance);\n\n    /**\n     * @dev Returns the owner of the `tokenId` token.\n     *\n     * Requirements:\n     *\n     * - `tokenId` must exist.\n     */\n    function ownerOf(uint256 tokenId) external view returns (address owner);\n\n    /**\n     * @dev Safely transfers `tokenId` token from `from` to `to`, checking first that contract recipients\n     * are aware of the ERC721 protocol to prevent tokens from being forever locked.\n     *\n     * Requirements:\n     *\n     * - `from` cannot be the zero address.\n     * - `to` cannot be the zero address.\n     * - `tokenId` token must exist and be owned by `from`.\n     * - If the caller is not `from`, it must be have been allowed to move this token by either {approve} or {setApprovalForAll}.\n     * - If `to` refers to a smart contract, it must implement {IERC721Receiver-onERC721Received}, which is called upon a safe transfer.\n     *\n     * Emits a {Transfer} event.\n     */\n    function safeTransferFrom(\n        address from,\n        address to,\n        uint256 tokenId\n    ) external;\n\n    /**\n     * @dev Transfers `tokenId` token from `from` to `to`.\n     *\n     * WARNING: Usage of this method is discouraged, use {safeTransferFrom} whenever possible.\n     *\n     * Requirements:\n     *\n     * - `from` cannot be the zero address.\n     * - `to` cannot be the zero address.\n     * - `tokenId` token must be owned by `from`.\n     * - If the caller is not `from`, it must be approved to move this token by either {approve} or {setApprovalForAll}.\n     *\n     * Emits a {Transfer} event.\n     */\n    function transferFrom(\n        address from,\n        address to,\n        uint256 tokenId\n    ) external;\n\n    /**\n     * @dev Gives permission to `to` to transfer `tokenId` token to another account.\n     * The approval is cleared when the token is transferred.\n     *\n     * Only a single account can be approved at a time, so approving the zero address clears previous approvals.\n     *\n     * Requirements:\n     *\n     * - The caller must own the token or be an approved operator.\n     * - `tokenId` must exist.\n     *\n     * Emits an {Approval} event.\n     */\n    function approve(address to, uint256 tokenId) external;\n\n    /**\n     * @dev Returns the account approved for `tokenId` token.\n     *\n     * Requirements:\n     *\n     * - `tokenId` must exist.\n     */\n    function getApproved(uint256 tokenId) external view returns (address operator);\n\n    /**\n     * @dev Approve or remove `operator` as an operator for the caller.\n     * Operators can call {transferFrom} or {safeTransferFrom} for any token owned by the caller.\n     *\n     * Requirements:\n     *\n     * - The `operator` cannot be the caller.\n     *\n     * Emits an {ApprovalForAll} event.\n     */\n    function setApprovalForAll(address operator, bool _approved) external;\n\n    /**\n     * @dev Returns if the `operator` is allowed to manage all of the assets of `owner`.\n     *\n     * See {setApprovalForAll}\n     */\n    function isApprovedForAll(address owner, address operator) external view returns (bool);\n\n    /**\n     * @dev Safely transfers `tokenId` token from `from` to `to`.\n     *\n     * Requirements:\n     *\n     * - `from` cannot be the zero address.\n     * - `to` cannot be the zero address.\n     * - `tokenId` token must exist and be owned by `from`.\n     * - If the caller is not `from`, it must be approved to move this token by either {approve} or {setApprovalForAll}.\n     * - If `to` refers to a smart contract, it must implement {IERC721Receiver-onERC721Received}, which is called upon a safe transfer.\n     *\n     * Emits a {Transfer} event.\n     */\n    function safeTransferFrom(\n        address from,\n        address to,\n        uint256 tokenId,\n        bytes calldata data\n    ) external;\n}\n\n/**\n * @title ERC721 token receiver interface\n * @dev Interface for any contract that wants to support safeTransfers\n * from ERC721 asset contracts.\n */\ninterface IERC721Receiver {\n    /**\n     * @dev Whenever an {IERC721} `tokenId` token is transferred to this contract via {IERC721-safeTransferFrom}\n     * by `operator` from `from`, this function is called.\n     *\n     * It must return its Solidity selector to confirm the token transfer.\n     * If any other value is returned or the interface is not implemented by the recipient, the transfer will be reverted.\n     *\n     * The selector can be obtained in Solidity with `IERC721.onERC721Received.selector`.\n     */\n    function onERC721Received(\n        address operator,\n        address from,\n        uint256 tokenId,\n        bytes calldata data\n    ) external returns (bytes4);\n}\n\n/**\n * @title ERC-721 Non-Fungible Token Standard, optional metadata extension\n * @dev See https://eips.ethereum.org/EIPS/eip-721\n */\ninterface IERC721Metadata is IERC721 {\n    /**\n     * @dev Returns the token collection name.\n     */\n    function name() external view returns (string memory);\n\n    /**\n     * @dev Returns the token collection symbol.\n     */\n    function symbol() external view returns (string memory);\n\n    /**\n     * @dev Returns the Uniform Resource Identifier (URI) for `tokenId` token.\n     */\n    function tokenURI(uint256 tokenId) external view returns (string memory);\n}\n\n/**\n * @dev Collection of functions related to the address type\n */\nlibrary Address {\n    /**\n     * @dev Returns true if `account` is a contract.\n     *\n     * [IMPORTANT]\n     * ====\n     * It is unsafe to assume that an address for which this function returns\n     * false is an externally-owned account (EOA) and not a contract.\n     *\n     * Among others, `isContract` will return false for the following\n     * types of addresses:\n     *\n     *  - an externally-owned account\n     *  - a contract in construction\n     *  - an address where a contract will be created\n     *  - an address where a contract lived, but was destroyed\n     * ====\n     */\n    function isContract(address account) internal view returns (bool) {\n        // This method relies on extcodesize, which returns 0 for contracts in\n        // construction, since the code is only stored at the end of the\n        // constructor execution.\n\n        uint256 size;\n        assembly {\n            size := extcodesize(account)\n        }\n        return size > 0;\n    }\n\n    /**\n     * @dev Replacement for Solidity's `transfer`: sends `amount` wei to\n     * `recipient`, forwarding all available gas and reverting on errors.\n     *\n     * https://eips.ethereum.org/EIPS/eip-1884[EIP1884] increases the gas cost\n     * of certain opcodes, possibly making contracts go over the 2300 gas limit\n     * imposed by `transfer`, making them unable to receive funds via\n     * `transfer`. {sendValue} removes this limitation.\n     *\n     * https://diligence.consensys.net/posts/2019/09/stop-using-soliditys-transfer-now/[Learn more].\n     *\n     * IMPORTANT: because control is transferred to `recipient`, care must be\n     * taken to not create reentrancy vulnerabilities. Consider using\n     * {ReentrancyGuard} or the\n     * https://solidity.readthedocs.io/en/v0.5.11/security-considerations.html#use-the-checks-effects-interactions-pattern[checks-effects-interactions pattern].\n     */\n    function sendValue(address payable recipient, uint256 amount) internal {\n        require(address(this).balance >= amount, \"Address: insufficient balance\");\n\n        (bool success, ) = recipient.call{value: amount}(\"\");\n        require(success, \"Address: unable to send value, recipient may have reverted\");\n    }\n\n    /**\n     * @dev Performs a Solidity function call using a low level `call`. A\n     * plain `call` is an unsafe replacement for a function call: use this\n     * function instead.\n     *\n     * If `target` reverts with a revert reason, it is bubbled up by this\n     * function (like regular Solidity function calls).\n     *\n     * Returns the raw returned data. To convert to the expected return value,\n     * use https://solidity.readthedocs.io/en/latest/units-and-global-variables.html?highlight=abi.decode#abi-encoding-and-decoding-functions[`abi.decode`].\n     *\n     * Requirements:\n     *\n     * - `target` must be a contract.\n     * - calling `target` with `data` must not revert.\n     *\n     * _Available since v3.1._\n     */\n    function functionCall(address target, bytes memory data) internal returns (bytes memory) {\n        return functionCall(target, data, \"Address: low-level call failed\");\n    }\n\n    /**\n     * @dev Same as {xref-Address-functionCall-address-bytes-}[`functionCall`], but with\n     * `errorMessage` as a fallback revert reason when `target` reverts.\n     *\n     * _Available since v3.1._\n     */\n    function functionCall(\n        address target,\n        bytes memory data,\n        string memory errorMessage\n    ) internal returns (bytes memory) {\n        return functionCallWithValue(target, data, 0, errorMessage);\n    }\n\n    /**\n     * @dev Same as {xref-Address-functionCall-address-bytes-}[`functionCall`],\n     * but also transferring `value` wei to `target`.\n     *\n     * Requirements:\n     *\n     * - the calling contract must have an ETH balance of at least `value`.\n     * - the called Solidity function must be `payable`.\n     *\n     * _Available since v3.1._\n     */\n    function functionCallWithValue(\n        address target,\n        bytes memory data,\n        uint256 value\n    ) internal returns (bytes memory) {\n        return functionCallWithValue(target, data, value, \"Address: low-level call with value failed\");\n    }\n\n    /**\n     * @dev Same as {xref-Address-functionCallWithValue-address-bytes-uint256-}[`functionCallWithValue`], but\n     * with `errorMessage` as a fallback revert reason when `target` reverts.\n     *\n     * _Available since v3.1._\n     */\n    function functionCallWithValue(\n        address target,\n        bytes memory data,\n        uint256 value,\n        string memory errorMessage\n    ) internal returns (bytes memory) {\n        require(address(this).balance >= value, \"Address: insufficient balance for call\");\n        require(isContract(target), \"Address: call to non-contract\");\n\n        (bool success, bytes memory returndata) = target.call{value: value}(data);\n        return _verifyCallResult(success, returndata, errorMessage);\n    }\n\n    /**\n     * @dev Same as {xref-Address-functionCall-address-bytes-}[`functionCall`],\n     * but performing a static call.\n     *\n     * _Available since v3.3._\n     */\n    function functionStaticCall(address target, bytes memory data) internal view returns (bytes memory) {\n        return functionStaticCall(target, data, \"Address: low-level static call failed\");\n    }\n\n    /**\n     * @dev Same as {xref-Address-functionCall-address-bytes-string-}[`functionCall`],\n     * but performing a static call.\n     *\n     * _Available since v3.3._\n     */\n    function functionStaticCall(\n        address target,\n        bytes memory data,\n        string memory errorMessage\n    ) internal view returns (bytes memory) {\n        require(isContract(target), \"Address: static call to non-contract\");\n\n        (bool success, bytes memory returndata) = target.staticcall(data);\n        return _verifyCallResult(success, returndata, errorMessage);\n    }\n\n    /**\n     * @dev Same as {xref-Address-functionCall-address-bytes-}[`functionCall`],\n     * but performing a delegate call.\n     *\n     * _Available since v3.4._\n     */\n    function functionDelegateCall(address target, bytes memory data) internal returns (bytes memory) {\n        return functionDelegateCall(target, data, \"Address: low-level delegate call failed\");\n    }\n\n    /**\n     * @dev Same as {xref-Address-functionCall-address-bytes-string-}[`functionCall`],\n     * but performing a delegate call.\n     *\n     * _Available since v3.4._\n     */\n    function functionDelegateCall(\n        address target,\n        bytes memory data,\n        string memory errorMessage\n    ) internal returns (bytes memory) {\n        require(isContract(target), \"Address: delegate call to non-contract\");\n\n        (bool success, bytes memory returndata) = target.delegatecall(data);\n        return _verifyCallResult(success, returndata, errorMessage);\n    }\n\n    function _verifyCallResult(\n        bool success,\n        bytes memory returndata,\n        string memory errorMessage\n    ) private pure returns (bytes memory) {\n        if (success) {\n            return returndata;\n        } else {\n            // Look for revert reason and bubble it up if present\n            if (returndata.length > 0) {\n                // The easiest way to bubble the revert reason is using memory via assembly\n\n                assembly {\n                    let returndata_size := mload(returndata)\n                    revert(add(32, returndata), returndata_size)\n                }\n            } else {\n                revert(errorMessage);\n            }\n        }\n    }\n}\n\n/*\n * @dev Provides information about the current execution context, including the\n * sender of the transaction and its data. While these are generally available\n * via msg.sender and msg.data, they should not be accessed in such a direct\n * manner, since when dealing with meta-transactions the account sending and\n * paying for execution may not be the actual sender (as far as an application\n * is concerned).\n *\n * This contract is only required for intermediate, library-like contracts.\n */\nabstract contract Context {\n    function _msgSender() internal view virtual returns (address) {\n        return msg.sender;\n    }\n\n    function _msgData() internal view virtual returns (bytes calldata) {\n        return msg.data;\n    }\n}\n\n/**\n * @dev String operations.\n */\nlibrary Strings {\n    bytes16 private constant _HEX_SYMBOLS = \"0123456789abcdef\";\n\n    /**\n     * @dev Converts a `uint256` to its ASCII `string` decimal representation.\n     */\n    function toString(uint256 value) internal pure returns (string memory) {\n        // Inspired by OraclizeAPI's implementation - MIT licence\n        // https://github.com/oraclize/ethereum-api/blob/b42146b063c7d6ee1358846c198246239e9360e8/oraclizeAPI_0.4.25.sol\n\n        if (value == 0) {\n            return \"0\";\n        }\n        uint256 temp = value;\n        uint256 digits;\n        while (temp != 0) {\n            digits++;\n            temp /= 10;\n        }\n        bytes memory buffer = new bytes(digits);\n        while (value != 0) {\n            digits -= 1;\n            buffer[digits] = bytes1(uint8(48 + uint256(value % 10)));\n            value /= 10;\n        }\n        return string(buffer);\n    }\n\n    /**\n     * @dev Converts a `uint256` to its ASCII `string` hexadecimal representation.\n     */\n    function toHexString(uint256 value) internal pure returns (string memory) {\n        if (value == 0) {\n            return \"0x00\";\n        }\n        uint256 temp = value;\n        uint256 length = 0;\n        while (temp != 0) {\n            length++;\n            temp >>= 8;\n        }\n        return toHexString(value, length);\n    }\n\n    /**\n     * @dev Converts a `uint256` to its ASCII `string` hexadecimal representation with fixed length.\n     */\n    function toHexString(uint256 value, uint256 length) internal pure returns (string memory) {\n        bytes memory buffer = new bytes(2 * length + 2);\n        buffer[0] = \"0\";\n        buffer[1] = \"x\";\n        for (uint256 i = 2 * length + 1; i > 1; --i) {\n            buffer[i] = _HEX_SYMBOLS[value & 0xf];\n            value >>= 4;\n        }\n        require(value == 0, \"Strings: hex length insufficient\");\n        return string(buffer);\n    }\n}\n\n/**\n * @dev Implementation of the {IERC165} interface.\n *\n * Contracts that want to implement ERC165 should inherit from this contract and override {supportsInterface} to check\n * for the additional interface id that will be supported. For example:\n *\n * ```solidity\n * function supportsInterface(bytes4 interfaceId) public view virtual override returns (bool) {\n *     return interfaceId == type(MyInterface).interfaceId || super.supportsInterface(interfaceId);\n * }\n * ```\n *\n * Alternatively, {ERC165Storage} provides an easier to use but more expensive implementation.\n */\nabstract contract ERC165 is IERC165 {\n    /**\n     * @dev See {IERC165-supportsInterface}.\n     */\n    function supportsInterface(bytes4 interfaceId) public view virtual override returns (bool) {\n        return interfaceId == type(IERC165).interfaceId;\n    }\n}\n\n/**\n * @dev Implementation of https://eips.ethereum.org/EIPS/eip-721[ERC721] Non-Fungible Token Standard, including\n * the Metadata extension, but not including the Enumerable extension, which is available separately as\n * {ERC721Enumerable}.\n */\ncontract ERC721 is Context, ERC165, IERC721, IERC721Metadata {\n    using Address for address;\n    using Strings for uint256;\n\n    // Token name\n    string private _name;\n\n    // Token symbol\n    string private _symbol;\n    \n    // Base URI\n    string private _baseURI;\n\n    // Mapping from token ID to owner address\n    mapping(uint256 => address) private _owners;\n\n    // Mapping owner address to token count\n    mapping(address => uint256) private _balances;\n\n    // Mapping from token ID to approved address\n    mapping(uint256 => address) private _tokenApprovals;\n\n    // Mapping from owner to operator approvals\n    mapping(address => mapping(address => bool)) private _operatorApprovals;\n\n    // Optional mapping for token URIs\n    mapping (uint256 => string) private _tokenURIs;\n\n    /**\n     * @dev Initializes the contract by setting a `name` and a `symbol` to the token collection.\n     */\n    constructor(string memory name_, string memory symbol_) {\n        _name = name_;\n        _symbol = symbol_;\n    }\n\n    /**\n     * @dev See {IERC165-supportsInterface}.\n     */\n    function supportsInterface(bytes4 interfaceId) public view virtual override(ERC165, IERC165) returns (bool) {\n        return\n            interfaceId == type(IERC721).interfaceId ||\n            interfaceId == type(IERC721Metadata).interfaceId ||\n            super.supportsInterface(interfaceId);\n    }\n\n    /**\n     * @dev See {IERC721-balanceOf}.\n     */\n    function balanceOf(address owner) public view virtual override returns (uint256) {\n        require(owner != address(0), \"ERC721: balance query for the zero address\");\n        return _balances[owner];\n    }\n\n    /**\n     * @dev See {IERC721-ownerOf}.\n     */\n    function ownerOf(uint256 tokenId) public view virtual override returns (address) {\n        address owner = _owners[tokenId];\n        require(owner != address(0), \"ERC721: owner query for nonexistent token\");\n        return owner;\n    }\n\n    /**\n     * @dev See {IERC721Metadata-name}.\n     */\n    function name() public view virtual override returns (string memory) {\n        return _name;\n    }\n\n    /**\n     * @dev See {IERC721Metadata-symbol}.\n     */\n    function symbol() public view virtual override returns (string memory) {\n        return _symbol;\n    }\n\n    /**\n     * @dev See {IERC721Metadata-tokenURI}.\n     */\n    function tokenURI(uint256 _tokenId) public view virtual override returns (string memory) {\n        require(bytes(baseURI()).length != 0, \"BaseURI has not been set yet\");\n        require(_exists(_tokenId), \"ERC721Metadata: URI query for nonexistent token\");\n\n        return string(abi.encodePacked(baseURI(), _tokenId.toString()));\n    }\n\n    /**\n    * @dev Returns the base URI set via {_setBaseURI}. This will be\n    * automatically added as a prefix in {tokenURI} to each token's URI, or\n    * to the token ID if no specific URI is set for that token ID.\n    */\n    function baseURI() public view virtual returns (string memory) {\n        return _baseURI;\n    }\n\n    /**\n     * @dev Internal function to set the base URI for all token IDs. It is\n     * automatically added as a prefix to the value returned in {tokenURI},\n     * or to the token ID if {tokenURI} is empty.\n     */\n    function _setBaseURI(string memory baseURI_) internal virtual {\n        _baseURI = baseURI_;\n    }\n\n    /**\n     * @dev See {IERC721-approve}.\n     */\n    function approve(address to, uint256 tokenId) public virtual override {\n        address owner = ERC721.ownerOf(tokenId);\n        require(to != owner, \"ERC721: approval to current owner\");\n\n        require(\n            _msgSender() == owner || isApprovedForAll(owner, _msgSender()),\n            \"ERC721: approve caller is not owner nor approved for all\"\n        );\n\n        _approve(to, tokenId);\n    }\n\n    /**\n     * @dev See {IERC721-getApproved}.\n     */\n    function getApproved(uint256 tokenId) public view virtual override returns (address) {\n        require(_exists(tokenId), \"ERC721: approved query for nonexistent token\");\n\n        return _tokenApprovals[tokenId];\n    }\n\n    /**\n     * @dev See {IERC721-setApprovalForAll}.\n     */\n    function setApprovalForAll(address operator, bool approved) public virtual override {\n        require(operator != _msgSender(), \"ERC721: approve to caller\");\n\n        _operatorApprovals[_msgSender()][operator] = approved;\n        emit ApprovalForAll(_msgSender(), operator, approved);\n    }\n\n    /**\n     * @dev See {IERC721-isApprovedForAll}.\n     */\n    function isApprovedForAll(address owner, address operator) public view virtual override returns (bool) {\n        return _operatorApprovals[owner][operator];\n    }\n\n    /**\n     * @dev See {IERC721-transferFrom}.\n     */\n    function transferFrom(\n        address from,\n        address to,\n        uint256 tokenId\n    ) public virtual override {\n        //solhint-disable-next-line max-line-length\n        require(_isApprovedOrOwner(_msgSender(), tokenId), \"ERC721: transfer caller is not owner nor approved\");\n\n        _transfer(from, to, tokenId);\n    }\n\n    /**\n     * @dev See {IERC721-safeTransferFrom}.\n     */\n    function safeTransferFrom(\n        address from,\n        address to,\n        uint256 tokenId\n    ) public virtual override {\n        safeTransferFrom(from, to, tokenId, \"\");\n    }\n\n    /**\n     * @dev See {IERC721-safeTransferFrom}.\n     */\n    function safeTransferFrom(\n        address from,\n        address to,\n        uint256 tokenId,\n        bytes memory _data\n    ) public virtual override {\n        require(_isApprovedOrOwner(_msgSender(), tokenId), \"ERC721: transfer caller is not owner nor approved\");\n        _safeTransfer(from, to, tokenId, _data);\n    }\n\n    /**\n     * @dev Safely transfers `tokenId` token from `from` to `to`, checking first that contract recipients\n     * are aware of the ERC721 protocol to prevent tokens from being forever locked.\n     *\n     * `_data` is additional data, it has no specified format and it is sent in call to `to`.\n     *\n     * This internal function is equivalent to {safeTransferFrom}, and can be used to e.g.\n     * implement alternative mechanisms to perform token transfer, such as signature-based.\n     *\n     * Requirements:\n     *\n     * - `from` cannot be the zero address.\n     * - `to` cannot be the zero address.\n     * - `tokenId` token must exist and be owned by `from`.\n     * - If `to` refers to a smart contract, it must implement {IERC721Receiver-onERC721Received}, which is called upon a safe transfer.\n     *\n     * Emits a {Transfer} event.\n     */\n    function _safeTransfer(\n        address from,\n        address to,\n        uint256 tokenId,\n        bytes memory _data\n    ) internal virtual {\n        _transfer(from, to, tokenId);\n        require(_checkOnERC721Received(from, to, tokenId, _data), \"ERC721: transfer to non ERC721Receiver implementer\");\n    }\n\n    /**\n     * @dev Returns whether `tokenId` exists.\n     *\n     * Tokens can be managed by their owner or approved accounts via {approve} or {setApprovalForAll}.\n     *\n     * Tokens start existing when they are minted (`_mint`),\n     * and stop existing when they are burned (`_burn`).\n     */\n    function _exists(uint256 tokenId) internal view virtual returns (bool) {\n        return _owners[tokenId] != address(0);\n    }\n\n    /**\n     * @dev Returns whether `spender` is allowed to manage `tokenId`.\n     *\n     * Requirements:\n     *\n     * - `tokenId` must exist.\n     */\n    function _isApprovedOrOwner(address spender, uint256 tokenId) internal view virtual returns (bool) {\n        require(_exists(tokenId), \"ERC721: operator query for nonexistent token\");\n        address owner = ERC721.ownerOf(tokenId);\n        return (spender == owner || getApproved(tokenId) == spender || isApprovedForAll(owner, spender));\n    }\n\n    /**\n     * @dev Safely mints `tokenId` and transfers it to `to`.\n     *\n     * Requirements:\n     *\n     * - `tokenId` must not exist.\n     * - If `to` refers to a smart contract, it must implement {IERC721Receiver-onERC721Received}, which is called upon a safe transfer.\n     *\n     * Emits a {Transfer} event.\n     */\n    function _safeMint(address to, uint256 tokenId) internal virtual {\n        _safeMint(to, tokenId, \"\");\n    }\n\n    /**\n     * @dev Same as {xref-ERC721-_safeMint-address-uint256-}[`_safeMint`], with an additional `data` parameter which is\n     * forwarded in {IERC721Receiver-onERC721Received} to contract recipients.\n     */\n    function _safeMint(\n        address to,\n        uint256 tokenId,\n        bytes memory _data\n    ) internal virtual {\n        _mint(to, tokenId);\n        require(\n            _checkOnERC721Received(address(0), to, tokenId, _data),\n            \"ERC721: transfer to non ERC721Receiver implementer\"\n        );\n    }\n\n    /**\n     * @dev Mints `tokenId` and transfers it to `to`.\n     *\n     * WARNING: Usage of this method is discouraged, use {_safeMint} whenever possible\n     *\n     * Requirements:\n     *\n     * - `tokenId` must not exist.\n     * - `to` cannot be the zero address.\n     *\n     * Emits a {Transfer} event.\n     */\n    function _mint(address to, uint256 tokenId) internal virtual {\n        require(to != address(0), \"ERC721: mint to the zero address\");\n        require(!_exists(tokenId), \"ERC721: token already minted\");\n\n        _beforeTokenTransfer(address(0), to, tokenId);\n\n        _balances[to] += 1;\n        _owners[tokenId] = to;\n\n        emit Transfer(address(0), to, tokenId);\n    }\n\n    /**\n     * @dev Destroys `tokenId`.\n     * The approval is cleared when the token is burned.\n     *\n     * Requirements:\n     *\n     * - `tokenId` must exist.\n     *\n     * Emits a {Transfer} event.\n     */\n    function _burn(uint256 tokenId) internal virtual {\n        address owner = ERC721.ownerOf(tokenId);\n\n        _beforeTokenTransfer(owner, address(0), tokenId);\n\n        // Clear approvals\n        _approve(address(0), tokenId);\n\n        _balances[owner] -= 1;\n        delete _owners[tokenId];\n\n        emit Transfer(owner, address(0), tokenId);\n    }\n\n    /**\n     * @dev Transfers `tokenId` from `from` to `to`.\n     *  As opposed to {transferFrom}, this imposes no restrictions on msg.sender.\n     *\n     * Requirements:\n     *\n     * - `to` cannot be the zero address.\n     * - `tokenId` token must be owned by `from`.\n     *\n     * Emits a {Transfer} event.\n     */\n    function _transfer(\n        address from,\n        address to,\n        uint256 tokenId\n    ) internal virtual {\n        require(ERC721.ownerOf(tokenId) == from, \"ERC721: transfer of token that is not own\");\n        require(to != address(0), \"ERC721: transfer to the zero address\");\n\n        _beforeTokenTransfer(from, to, tokenId);\n\n        // Clear approvals from the previous owner\n        _approve(address(0), tokenId);\n\n        _balances[from] -= 1;\n        _balances[to] += 1;\n        _owners[tokenId] = to;\n\n        emit Transfer(from, to, tokenId);\n    }\n\n    /**\n     * @dev Approve `to` to operate on `tokenId`\n     *\n     * Emits a {Approval} event.\n     */\n    function _approve(address to, uint256 tokenId) internal virtual {\n        _tokenApprovals[tokenId] = to;\n        emit Approval(ERC721.ownerOf(tokenId), to, tokenId);\n    }\n\n    /**\n     * @dev Internal function to invoke {IERC721Receiver-onERC721Received} on a target address.\n     * The call is not executed if the target address is not a contract.\n     *\n     * @param from address representing the previous owner of the given token ID\n     * @param to target address that will receive the tokens\n     * @param tokenId uint256 ID of the token to be transferred\n     * @param _data bytes optional data to send along with the call\n     * @return bool whether the call correctly returned the expected magic value\n     */\n    function _checkOnERC721Received(\n        address from,\n        address to,\n        uint256 tokenId,\n        bytes memory _data\n    ) private returns (bool) {\n        if (to.isContract()) {\n            try IERC721Receiver(to).onERC721Received(_msgSender(), from, tokenId, _data) returns (bytes4 retval) {\n                return retval == IERC721Receiver(to).onERC721Received.selector;\n            } catch (bytes memory reason) {\n                if (reason.length == 0) {\n                    revert(\"ERC721: transfer to non ERC721Receiver implementer\");\n                } else {\n                    assembly {\n                        revert(add(32, reason), mload(reason))\n                    }\n                }\n            }\n        } else {\n            return true;\n        }\n    }\n\n    /**\n     * @dev Hook that is called before any token transfer. This includes minting\n     * and burning.\n     *\n     * Calling conditions:\n     *\n     * - When `from` and `to` are both non-zero, ``from``'s `tokenId` will be\n     * transferred to `to`.\n     * - When `from` is zero, `tokenId` will be minted for `to`.\n     * - When `to` is zero, ``from``'s `tokenId` will be burned.\n     * - `from` and `to` are never both zero.\n     *\n     * To learn more about hooks, head to xref:ROOT:extending-contracts.adoc#using-hooks[Using Hooks].\n     */\n    function _beforeTokenTransfer(\n        address from,\n        address to,\n        uint256 tokenId\n    ) internal virtual {}\n}\n\n/**\n * @title ERC-721 Non-Fungible Token Standard, optional enumeration extension\n * @dev See https://eips.ethereum.org/EIPS/eip-721\n */\ninterface IERC721Enumerable is IERC721 {\n    /**\n     * @dev Returns the total amount of tokens stored by the contract.\n     */\n    function totalSupply() external view returns (uint256);\n\n    /**\n     * @dev Returns a token ID owned by `owner` at a given `index` of its token list.\n     * Use along with {balanceOf} to enumerate all of ``owner``'s tokens.\n     */\n    function tokenOfOwnerByIndex(address owner, uint256 index) external view returns (uint256 tokenId);\n\n    /**\n     * @dev Returns a token ID at a given `index` of all the tokens stored by the contract.\n     * Use along with {totalSupply} to enumerate all tokens.\n     */\n    function tokenByIndex(uint256 index) external view returns (uint256);\n}\n\n/**\n * @dev This implements an optional extension of {ERC721} defined in the EIP that adds\n * enumerability of all the token ids in the contract as well as all token ids owned by each\n * account.\n */\nabstract contract ERC721Enumerable is ERC721, IERC721Enumerable {\n    // Mapping from owner to list of owned token IDs\n    mapping(address => mapping(uint256 => uint256)) private _ownedTokens;\n\n    // Mapping from token ID to index of the owner tokens list\n    mapping(uint256 => uint256) private _ownedTokensIndex;\n\n    // Array with all token ids, used for enumeration\n    uint256[] private _allTokens;\n\n    // Mapping from token id to position in the allTokens array\n    mapping(uint256 => uint256) private _allTokensIndex;\n\n    /**\n     * @dev See {IERC165-supportsInterface}.\n     */\n    function supportsInterface(bytes4 interfaceId) public view virtual override(IERC165, ERC721) returns (bool) {\n        return interfaceId == type(IERC721Enumerable).interfaceId || super.supportsInterface(interfaceId);\n    }\n\n    /**\n     * @dev See {IERC721Enumerable-tokenOfOwnerByIndex}.\n     */\n    function tokenOfOwnerByIndex(address owner, uint256 index) public view virtual override returns (uint256) {\n        require(index < ERC721.balanceOf(owner), \"ERC721Enumerable: owner index out of bounds\");\n        return _ownedTokens[owner][index];\n    }\n\n    /**\n     * @dev See {IERC721Enumerable-totalSupply}.\n     */\n    function totalSupply() public view virtual override returns (uint256) {\n        return _allTokens.length;\n    }\n\n    /**\n     * @dev See {IERC721Enumerable-tokenByIndex}.\n     */\n    function tokenByIndex(uint256 index) public view virtual override returns (uint256) {\n        require(index < ERC721Enumerable.totalSupply(), \"ERC721Enumerable: global index out of bounds\");\n        return _allTokens[index];\n    }\n\n    /**\n     * @dev Hook that is called before any token transfer. This includes minting\n     * and burning.\n     *\n     * Calling conditions:\n     *\n     * - When `from` and `to` are both non-zero, ``from``'s `tokenId` will be\n     * transferred to `to`.\n     * - When `from` is zero, `tokenId` will be minted for `to`.\n     * - When `to` is zero, ``from``'s `tokenId` will be burned.\n     * - `from` cannot be the zero address.\n     * - `to` cannot be the zero address.\n     *\n     * To learn more about hooks, head to xref:ROOT:extending-contracts.adoc#using-hooks[Using Hooks].\n     */\n    function _beforeTokenTransfer(\n        address from,\n        address to,\n        uint256 tokenId\n    ) internal virtual override {\n        super._beforeTokenTransfer(from, to, tokenId);\n\n        if (from == address(0)) {\n            _addTokenToAllTokensEnumeration(tokenId);\n        } else if (from != to) {\n            _removeTokenFromOwnerEnumeration(from, tokenId);\n        }\n        if (to == address(0)) {\n            _removeTokenFromAllTokensEnumeration(tokenId);\n        } else if (to != from) {\n            _addTokenToOwnerEnumeration(to, tokenId);\n        }\n    }\n\n    /**\n     * @dev Private function to add a token to this extension's ownership-tracking data structures.\n     * @param to address representing the new owner of the given token ID\n     * @param tokenId uint256 ID of the token to be added to the tokens list of the given address\n     */\n    function _addTokenToOwnerEnumeration(address to, uint256 tokenId) private {\n        uint256 length = ERC721.balanceOf(to);\n        _ownedTokens[to][length] = tokenId;\n        _ownedTokensIndex[tokenId] = length;\n    }\n\n    /**\n     * @dev Private function to add a token to this extension's token tracking data structures.\n     * @param tokenId uint256 ID of the token to be added to the tokens list\n     */\n    function _addTokenToAllTokensEnumeration(uint256 tokenId) private {\n        _allTokensIndex[tokenId] = _allTokens.length;\n        _allTokens.push(tokenId);\n    }\n\n    /**\n     * @dev Private function to remove a token from this extension's ownership-tracking data structures. Note that\n     * while the token is not assigned a new owner, the `_ownedTokensIndex` mapping is _not_ updated: this allows for\n     * gas optimizations e.g. when performing a transfer operation (avoiding double writes).\n     * This has O(1) time complexity, but alters the order of the _ownedTokens array.\n     * @param from address representing the previous owner of the given token ID\n     * @param tokenId uint256 ID of the token to be removed from the tokens list of the given address\n     */\n    function _removeTokenFromOwnerEnumeration(address from, uint256 tokenId) private {\n        // To prevent a gap in from's tokens array, we store the last token in the index of the token to delete, and\n        // then delete the last slot (swap and pop).\n\n        uint256 lastTokenIndex = ERC721.balanceOf(from) - 1;\n        uint256 tokenIndex = _ownedTokensIndex[tokenId];\n\n        // When the token to delete is the last token, the swap operation is unnecessary\n        if (tokenIndex != lastTokenIndex) {\n            uint256 lastTokenId = _ownedTokens[from][lastTokenIndex];\n\n            _ownedTokens[from][tokenIndex] = lastTokenId; // Move the last token to the slot of the to-delete token\n            _ownedTokensIndex[lastTokenId] = tokenIndex; // Update the moved token's index\n        }\n\n        // This also deletes the contents at the last position of the array\n        delete _ownedTokensIndex[tokenId];\n        delete _ownedTokens[from][lastTokenIndex];\n    }\n\n    /**\n     * @dev Private function to remove a token from this extension's token tracking data structures.\n     * This has O(1) time complexity, but alters the order of the _allTokens array.\n     * @param tokenId uint256 ID of the token to be removed from the tokens list\n     */\n    function _removeTokenFromAllTokensEnumeration(uint256 tokenId) private {\n        // To prevent a gap in the tokens array, we store the last token in the index of the token to delete, and\n        // then delete the last slot (swap and pop).\n\n        uint256 lastTokenIndex = _allTokens.length - 1;\n        uint256 tokenIndex = _allTokensIndex[tokenId];\n\n        // When the token to delete is the last token, the swap operation is unnecessary. However, since this occurs so\n        // rarely (when the last minted token is burnt) that we still do the swap here to avoid the gas cost of adding\n        // an 'if' statement (like in _removeTokenFromOwnerEnumeration)\n        uint256 lastTokenId = _allTokens[lastTokenIndex];\n\n        _allTokens[tokenIndex] = lastTokenId; // Move the last token to the slot of the to-delete token\n        _allTokensIndex[lastTokenId] = tokenIndex; // Update the moved token's index\n\n        // This also deletes the contents at the last position of the array\n        delete _allTokensIndex[tokenId];\n        _allTokens.pop();\n    }\n}\n\n/**\n * @dev Contract module which provides a basic access control mechanism, where\n * there is an account (an owner) that can be granted exclusive access to\n * specific functions.\n *\n * By default, the owner account will be the one that deploys the contract. This\n * can later be changed with {transferOwnership}.\n *\n * This module is used through inheritance. It will make available the modifier\n * `onlyOwner`, which can be applied to your functions to restrict their use to\n * the owner.\n */\nabstract contract Ownable is Context {\n    address private _owner;\n\n    event OwnershipTransferred(address indexed previousOwner, address indexed newOwner);\n\n    /**\n     * @dev Initializes the contract setting the deployer as the initial owner.\n     */\n    constructor() {\n        _setOwner(_msgSender());\n    }\n\n    /**\n     * @dev Returns the address of the current owner.\n     */\n    function owner() public view virtual returns (address) {\n        return _owner;\n    }\n\n    /**\n     * @dev Throws if called by any account other than the owner.\n     */\n    modifier onlyOwner() {\n        require(owner() == _msgSender(), \"Ownable: caller is not the owner\");\n        _;\n    }\n\n    /**\n     * @dev Leaves the contract without owner. It will not be possible to call\n     * `onlyOwner` functions anymore. Can only be called by the current owner.\n     *\n     * NOTE: Renouncing ownership will leave the contract without an owner,\n     * thereby removing any functionality that is only available to the owner.\n     */\n    function renounceOwnership() public virtual onlyOwner {\n        _setOwner(address(0));\n    }\n\n    /**\n     * @dev Transfers ownership of the contract to a new account (`newOwner`).\n     * Can only be called by the current owner.\n     */\n    function transferOwnership(address newOwner) public virtual onlyOwner {\n        require(newOwner != address(0), \"Ownable: new owner is the zero address\");\n        _setOwner(newOwner);\n    }\n\n    function _setOwner(address newOwner) private {\n        address oldOwner = _owner;\n        _owner = newOwner;\n        emit OwnershipTransferred(oldOwner, newOwner);\n    }\n}\n\ncontract TestFuturePunks is ERC721Enumerable, Ownable {\n    using Strings for uint256;\n\n    uint256 public constant MAX_NFT_SUPPLY = 7777;\n\n    uint256 public maxPurchase = 20;\n\n    uint256 public constant reserveTokens = 50;\n\n    uint256 public tokenPrice = 30000000000000000; // 0.03 ETH\n\n    // SHA256 of concatenated hash string containing all the hashes of all tokens\n    string public FinalProofHash;\n\n    // IPFS hash of a json containing the metadata of all the tokens, will be uploaded when all are sold\n    string public METADATA_IPFS_HASH;\n\n    // ensures that we do not change the metadata multiple times\n    bool public metadataRevealed = false;\n\n    // expresses whether users can buy\n    bool public saleIsActive = false;\n\n    // list of addresses eligible for the first pre-sale\n    address[] public _firstPresaleList;\n\n    // list of addresses eligible for the second pre-sale\n    address[] public _secondPresaleList;\n\n    // booleans to identify the current salephase\n    bool public _presaleOneEnabled = false;\n    bool public _presaleTwoEnabled = false;\n    bool public _publicSaleEnabled = false;\n\n    // mapping to keep count of how many tokens an address has bought during each phase\n    mapping(address => uint256) public _firstPresaleCounter;\n    mapping(address => uint256) public _secondPresaleCounter;\n\n    // number of tokens an address can buy during each presale phase\n    uint256 public firstPresaleLimit = 3;\n    uint256 public secondPresaleLimit = 1;\n\n    // counter for the current token id\n    uint256 public _currentTokenId = 0;\n\n    // whether the tokenURI link needs \".json\" after the tokenId\n    bool internal tokenURIDotJson = false;\n    \n    constructor() ERC721(\"TestFuturePunks\", \"TFP\") {}\n\n    function buyTokens(uint256 numberOfTokens) public payable {\n        require(saleIsActive, \"Sale must be active to mint\");\n        require(_presaleOneEnabled || _presaleTwoEnabled || _publicSaleEnabled, \"no phase is active\");\n        require(numberOfTokens > 0 && numberOfTokens <= maxPurchase, \"Not within the range of maxPurchase\");\n        require((totalSupply() + numberOfTokens) <= MAX_NFT_SUPPLY, \"Purchase would exceed max supply of FuturePunks\");\n        require(msg.value >= tokenPrice * numberOfTokens, \"Ether value sent is not correct\");\n\n        // if (msg.sender != owner()) {\n        //     if(_presaleOneEnabled == true) {\n        //         require(isInFirstPresale(msg.sender), \"user is not whitelisted\");\n        //         uint256 ownerMintedCount = _firstPresaleCounter[msg.sender];\n        //         require(ownerMintedCount + numberOfTokens <= firstPresaleLimit, \"max NFT per address exceeded\");\n        //         for (uint256 i = 0; i < numberOfTokens; i++) {\n        //             uint256 id = _currentTokenId;\n        //             _firstPresaleCounter[msg.sender]++;\n        //             if (totalSupply() < MAX_NFT_SUPPLY) {\n        //                 _safeMint(msg.sender, id);\n        //             }\n        //         }\n        //     } else if (_presaleTwoEnabled == true) {\n        //         require(isInSecondPresale(msg.sender), \"user is not whitelisted\");\n        //         uint256 ownerMintedCount = _secondPresaleCounter[msg.sender];\n        //         require(ownerMintedCount + numberOfTokens <= secondPresaleLimit, \"max NFT per address exceeded\");\n        //         for (uint256 i = 0; i < numberOfTokens; i++) {\n        //             uint256 id = _currentTokenId;\n        //             _secondPresaleCounter[msg.sender]++;\n        //             if (totalSupply() < MAX_NFT_SUPPLY) {\n        //                 _safeMint(msg.sender, id);\n        //             }\n        //         }\n        //     } else if (_publicSaleEnabled == true) {\n        //         for (uint256 i = 0; i < numberOfTokens; i++) {\n        //             uint256 id = _currentTokenId;\n        //             _secondPresaleCounter[msg.sender]++;\n        //             if (totalSupply() < MAX_NFT_SUPPLY) {\n        //                 _safeMint(msg.sender, id);\n        //             }\n        //         }\n        //     }\n        // }\n\n        if(_presaleOneEnabled == true) {\n            require(isInFirstPresale(msg.sender), \"user is not whitelisted\");\n            uint256 ownerMintedCount = _firstPresaleCounter[msg.sender];\n            require(ownerMintedCount + numberOfTokens <= firstPresaleLimit, \"max NFT per address exceeded\");\n            for (uint256 i = 0; i < numberOfTokens; i++) {\n                uint256 id = _currentTokenId;\n                _firstPresaleCounter[msg.sender]++;\n                if (totalSupply() < MAX_NFT_SUPPLY) {\n                    _safeMint(msg.sender, id);\n                }\n            }\n        } else if (_presaleTwoEnabled == true) {\n            require(isInSecondPresale(msg.sender), \"user is not whitelisted\");\n            uint256 ownerMintedCount = _secondPresaleCounter[msg.sender];\n            require(ownerMintedCount + numberOfTokens <= secondPresaleLimit, \"max NFT per address exceeded\");\n            for (uint256 i = 0; i < numberOfTokens; i++) {\n                uint256 id = _currentTokenId;\n                _secondPresaleCounter[msg.sender]++;\n                if (totalSupply() < MAX_NFT_SUPPLY) {\n                    _safeMint(msg.sender, id);\n                }\n            }\n        } else if (_publicSaleEnabled == true) {\n            for (uint256 i = 0; i < numberOfTokens; i++) {\n                uint256 id = _currentTokenId;\n                _secondPresaleCounter[msg.sender]++;\n                if (totalSupply() < MAX_NFT_SUPPLY) {\n                    _safeMint(msg.sender, id);\n                }\n            }\n        }\n    }\n\n    function metadataURI() public view returns (string memory) {\n        return string(abi.encodePacked(\"ipfs://\", METADATA_IPFS_HASH));\n    }\n\n    function tokensOfOwner(address _owner) external view returns (uint256[] memory ) {\n        uint256 tokenCount = balanceOf(_owner);\n        if (tokenCount == 0) {\n            // Return an empty array\n            return new uint256[](0);\n        } else {\n            uint256[] memory result = new uint256[](tokenCount);\n            uint256 index;\n            for (index = 0; index < tokenCount; index++) {\n                result[index] = tokenOfOwnerByIndex(_owner, index);\n            }\n            return result;\n        }\n    }\n\n    // checks whether the address is on the whitelist for 2nd presale\n    function isInFirstPresale(address user) public view returns (bool answer) {\n        for (uint i = 0; i < _firstPresaleList.length; i++) {\n            if (_firstPresaleList[i] == user) {\n                return true;\n            }\n        }\n        return false;\n    }\n\n    // checks whether the address is on the whitelist for 2nd presale\n    function isInSecondPresale(address user) public view returns (bool answer) {\n        for (uint i = 0; i < _firstPresaleList.length; i++) {\n            if (_secondPresaleList[i] == user) {\n                return true;\n            }\n        }\n        return false;\n    }\n\n    function tokenURI(uint256 _tokenId) public view virtual override returns (string memory) {\n        if (tokenURIDotJson == true) {\n            return string(abi.encodePacked(baseURI(), _tokenId.toString(), \".json\"));\n        } else {\n            return string(abi.encodePacked(baseURI(), _tokenId.toString()));\n        }\n    }\n\n    // OWNER ONLY FUNCTIONS\n\n    // add a whole array of addresses to the list of whitelisted addresses for the first presale\n    function setFirstPresaleList(address[] memory addresses) public onlyOwner {\n        _firstPresaleList = addresses;\n    }\n\n    // add a whole array of addresses to the list of whitelisted addresses for the second presale\n    function setSecondPresaleList(address[] memory addresses) public onlyOwner {\n        _secondPresaleList = addresses;\n    }\n\n    // change token price\n    function changeTokenPrice(uint256 newPrice) public onlyOwner {\n        tokenPrice = newPrice;\n    }\n\n    // start the 1st round of pre-sale\n    function startFirstPresale() public onlyOwner {\n        _presaleOneEnabled = true;\n    }\n\n    // start the 2nd round of pre-sale\n    function startSecondPresale() public onlyOwner {\n        _presaleOneEnabled = false;\n        _presaleTwoEnabled = true;\n    }\n\n    // change the amount of tokens you can mint during the first presale\n    function changeFirstPresaleLimit(uint256 amount) public onlyOwner {\n        firstPresaleLimit = amount;\n    }\n    \n    // change the amount of tokens you can mint during the second presale\n    function changeSecondPresaleLimit(uint256 amount) public onlyOwner {\n        secondPresaleLimit = amount;\n    }\n\n    // start the public sale\n    function startPublicSale() public onlyOwner {\n        _presaleTwoEnabled = false;\n        _publicSaleEnabled = true;\n    }\n\n    // reveals the metadata and prohibits further changes\n    function revealMetadata(string memory finalHash, string memory metadataHash) public onlyOwner {\n        require(metadataRevealed != true, \"FuturePunks: You've already revealed the metadata!\");\n\n        FinalProofHash = finalHash;\n        METADATA_IPFS_HASH = metadataHash;\n        metadataRevealed = true;\n    }\n\n    // change the amount of tokens users can buy at once\n    function changeMaxPurchase(uint256 amount) public onlyOwner {\n        maxPurchase = amount;\n    }\n\n    // withdraw all the Ether from the contract to the owner\n    function withdrawAll() external onlyOwner {\n        uint256 balance = address(this).balance;\n        payable(msg.sender).transfer(balance);\n    }\n\n    // set baseURI\n    function setBaseURI(string memory baseURI) public onlyOwner {\n        _setBaseURI(baseURI);\n    }\n\n    // switches between using and not using the \".json\" extension\n    function switchDotJson() public onlyOwner {\n        if (tokenURIDotJson == true) {\n            tokenURIDotJson = false;\n        } else {\n            tokenURIDotJson = true;\n        }\n    }\n\n    // allows minting\n    function flipSaleIsActive() public onlyOwner {\n        saleIsActive = true;\n    }\n\n    /* receive 50 tokens for the team and marketing purposes, then start the sale\n    this function will be called 2 times due to the gas limit (25 in each transaction) */\n    function getReserves() public onlyOwner {\n        require(saleIsActive == false, \"FuturePunks: Reserves taken and sale started already!\");\n\n        for (uint256 i = 0; i < 25; i++) {\n            uint256 id = _currentTokenId;\n            if (totalSupply() < MAX_NFT_SUPPLY) {\n                _safeMint(msg.sender, id);\n            }\n        }\n    }\n}",
  "sourcePath": "/Users/Martin/workdir/future-punks-nft/contracts/TestFuturePunks.sol",
  "compiler": {
    "name": "solc",
    "version": "0.8.4+commit.c7e474f2.Emscripten.clang"
  },
  "schemaVersion": "3.4.3",
  "updatedAt": "2021-09-27T11:30:43.190Z",
  "networkType": "ethereum",
  "devdoc": {
    "kind": "dev",
    "methods": {
      "approve(address,uint256)": {
        "details": "See {IERC721-approve}."
      },
      "balanceOf(address)": {
        "details": "See {IERC721-balanceOf}."
      },
      "baseURI()": {
        "details": "Returns the base URI set via {_setBaseURI}. This will be automatically added as a prefix in {tokenURI} to each token's URI, or to the token ID if no specific URI is set for that token ID."
      },
      "getApproved(uint256)": {
        "details": "See {IERC721-getApproved}."
      },
      "isApprovedForAll(address,address)": {
        "details": "See {IERC721-isApprovedForAll}."
      },
      "name()": {
        "details": "See {IERC721Metadata-name}."
      },
      "owner()": {
        "details": "Returns the address of the current owner."
      },
      "ownerOf(uint256)": {
        "details": "See {IERC721-ownerOf}."
      },
      "renounceOwnership()": {
        "details": "Leaves the contract without owner. It will not be possible to call `onlyOwner` functions anymore. Can only be called by the current owner. NOTE: Renouncing ownership will leave the contract without an owner, thereby removing any functionality that is only available to the owner."
      },
      "safeTransferFrom(address,address,uint256)": {
        "details": "See {IERC721-safeTransferFrom}."
      },
      "safeTransferFrom(address,address,uint256,bytes)": {
        "details": "See {IERC721-safeTransferFrom}."
      },
      "setApprovalForAll(address,bool)": {
        "details": "See {IERC721-setApprovalForAll}."
      },
      "supportsInterface(bytes4)": {
        "details": "See {IERC165-supportsInterface}."
      },
      "symbol()": {
        "details": "See {IERC721Metadata-symbol}."
      },
      "tokenByIndex(uint256)": {
        "details": "See {IERC721Enumerable-tokenByIndex}."
      },
      "tokenOfOwnerByIndex(address,uint256)": {
        "details": "See {IERC721Enumerable-tokenOfOwnerByIndex}."
      },
      "tokenURI(uint256)": {
        "details": "See {IERC721Metadata-tokenURI}."
      },
      "totalSupply()": {
        "details": "See {IERC721Enumerable-totalSupply}."
      },
      "transferFrom(address,address,uint256)": {
        "details": "See {IERC721-transferFrom}."
      },
      "transferOwnership(address)": {
        "details": "Transfers ownership of the contract to a new account (`newOwner`). Can only be called by the current owner."
      }
    },
    "version": 1
  },
  "userdoc": {
    "kind": "user",
    "methods": {},
    "version": 1
  }
}