{
  "_format": "hh-sol-artifact-1",
  "contractName": "TestAirdrop",
  "sourceName": "contracts/TestAirdrop.sol",
  "abi": [
    {
      "inputs": [],
      "stateMutability": "nonpayable",
      "type": "constructor"
    },
    {
      "anonymous": false,
      "inputs": [
        {
          "indexed": false,
          "internalType": "address",
          "name": "byWho",
          "type": "address"
        },
        {
          "indexed": false,
          "internalType": "uint256",
          "name": "amount",
          "type": "uint256"
        }
      ],
      "name": "AirdropClaimed",
      "type": "event"
    },
    {
      "anonymous": false,
      "inputs": [
        {
          "indexed": false,
          "internalType": "uint256",
          "name": "amount",
          "type": "uint256"
        }
      ],
      "name": "DepositedFunds",
      "type": "event"
    },
    {
      "anonymous": false,
      "inputs": [
        {
          "indexed": true,
          "internalType": "address",
          "name": "previousOwner",
          "type": "address"
        },
        {
          "indexed": true,
          "internalType": "address",
          "name": "newOwner",
          "type": "address"
        }
      ],
      "name": "OwnershipTransferred",
      "type": "event"
    },
    {
      "inputs": [
        {
          "internalType": "address",
          "name": "",
          "type": "address"
        }
      ],
      "name": "airdropClaimed",
      "outputs": [
        {
          "internalType": "bool",
          "name": "",
          "type": "bool"
        }
      ],
      "stateMutability": "view",
      "type": "function"
    },
    {
      "inputs": [
        {
          "components": [
            {
              "internalType": "address",
              "name": "reciever",
              "type": "address"
            },
            {
              "internalType": "uint16",
              "name": "maxcount",
              "type": "uint16"
            },
            {
              "internalType": "bytes",
              "name": "signature",
              "type": "bytes"
            }
          ],
          "internalType": "struct TestAirdrop.NFTVoucher",
          "name": "voucher",
          "type": "tuple"
        }
      ],
      "name": "claimAirdrop",
      "outputs": [],
      "stateMutability": "nonpayable",
      "type": "function"
    },
    {
      "inputs": [],
      "name": "getChainID",
      "outputs": [
        {
          "internalType": "uint256",
          "name": "",
          "type": "uint256"
        }
      ],
      "stateMutability": "view",
      "type": "function"
    },
    {
      "inputs": [],
      "name": "owner",
      "outputs": [
        {
          "internalType": "address",
          "name": "",
          "type": "address"
        }
      ],
      "stateMutability": "view",
      "type": "function"
    },
    {
      "inputs": [],
      "name": "pauseAirdrop",
      "outputs": [],
      "stateMutability": "nonpayable",
      "type": "function"
    },
    {
      "inputs": [],
      "name": "renounceOwnership",
      "outputs": [],
      "stateMutability": "nonpayable",
      "type": "function"
    },
    {
      "inputs": [],
      "name": "tokenContract",
      "outputs": [
        {
          "internalType": "address",
          "name": "",
          "type": "address"
        }
      ],
      "stateMutability": "view",
      "type": "function"
    },
    {
      "inputs": [
        {
          "internalType": "address",
          "name": "newOwner",
          "type": "address"
        }
      ],
      "name": "transferOwnership",
      "outputs": [],
      "stateMutability": "nonpayable",
      "type": "function"
    },
    {
      "inputs": [],
      "name": "whoIsAsking",
      "outputs": [
        {
          "internalType": "address",
          "name": "",
          "type": "address"
        }
      ],
      "stateMutability": "view",
      "type": "function"
    },
    {
      "inputs": [
        {
          "internalType": "uint256",
          "name": "amount",
          "type": "uint256"
        }
      ],
      "name": "withdrawAirdropFunds",
      "outputs": [],
      "stateMutability": "nonpayable",
      "type": "function"
    }
  ],
  "bytecode": "0x610120604052735f77c7c3b9b4f53f2d8c94a0ee28ba7d80436251600160006101000a81548173ffffffffffffffffffffffffffffffffffffffff021916908373ffffffffffffffffffffffffffffffffffffffff160217905550730dd874f41ce844fcdaeba33714b6197136d89b7f600260006101000a81548173ffffffffffffffffffffffffffffffffffffffff021916908373ffffffffffffffffffffffffffffffffffffffff1602179055506000600260146101000a81548160ff021916908315150217905550348015620000d757600080fd5b506040518060400160405280600b81526020017f5465737441697264726f700000000000000000000000000000000000000000008152506040518060400160405280600181526020017f31000000000000000000000000000000000000000000000000000000000000008152506200016462000158620001e760201b60201c565b620001ef60201b60201c565b60008280519060200120905060008280519060200120905060007f8b73c3c69bb8fe3d512ecc4cf759cc79239f7b179b0ffacaa9a75d522b39400f90508260c081815250508160e081815250504660a08181525050620001cc818484620002b360201b60201c565b608081815250508061010081815250505050505050620003c7565b600033905090565b60008060009054906101000a900473ffffffffffffffffffffffffffffffffffffffff169050816000806101000a81548173ffffffffffffffffffffffffffffffffffffffff021916908373ffffffffffffffffffffffffffffffffffffffff1602179055508173ffffffffffffffffffffffffffffffffffffffff168173ffffffffffffffffffffffffffffffffffffffff167f8be0079c531659141344cd1fd0a4f28419497f9722a3daafe3b4186f6b6457e060405160405180910390a35050565b60008383834630604051602001620002d095949392919062000322565b6040516020818303038152906040528051906020012090509392505050565b620002fa816200037f565b82525050565b6200030b8162000393565b82525050565b6200031c81620003bd565b82525050565b600060a08201905062000339600083018862000300565b62000348602083018762000300565b62000357604083018662000300565b62000366606083018562000311565b620003756080830184620002ef565b9695505050505050565b60006200038c826200039d565b9050919050565b6000819050919050565b600073ffffffffffffffffffffffffffffffffffffffff82169050919050565b6000819050919050565b60805160a05160c05160e051610100516121136200040c60003960006111300152600061117201526000611151015260006110dd0152600061110501526121136000f3fe608060405234801561001057600080fd5b506004361061009e5760003560e01c80638da5cb5b116100665780638da5cb5b14610123578063c6afd5bb14610141578063c71b33571461014b578063d1b6dd3014610167578063f2fde38b146101975761009e565b806355a373d6146100a3578063564b81ef146100c1578063715018a6146100df5780637152637d146100e95780637479752d14610105575b600080fd5b6100ab6101b3565b6040516100b89190611845565b60405180910390f35b6100c96101d9565b6040516100d69190611b6c565b60405180910390f35b6100e76101e6565b005b61010360048036038101906100fe9190611509565b61026e565b005b61010d61031a565b60405161011a9190611845565b60405180910390f35b61012b610327565b6040516101389190611845565b60405180910390f35b610149610350565b005b6101656004803603810190610160919061149f565b6103f8565b005b610181600480360381019061017c919061144d565b6106ec565b60405161018e91906118c0565b60405180910390f35b6101b160048036038101906101ac919061144d565b61070c565b005b600160009054906101000a900473ffffffffffffffffffffffffffffffffffffffff1681565b6000804690508091505090565b6101ee610804565b73ffffffffffffffffffffffffffffffffffffffff1661020c610327565b73ffffffffffffffffffffffffffffffffffffffff1614610262576040517f08c379a000000000000000000000000000000000000000000000000000000000815260040161025990611acc565b60405180910390fd5b61026c600061080c565b565b610276610804565b73ffffffffffffffffffffffffffffffffffffffff16610294610327565b73ffffffffffffffffffffffffffffffffffffffff16146102ea576040517f08c379a00000000000000000000000000000000000000000000000000000000081526004016102e190611acc565b60405180910390fd5b610317600160009054906101000a900473ffffffffffffffffffffffffffffffffffffffff1633836108d0565b50565b6000803390508091505090565b60008060009054906101000a900473ffffffffffffffffffffffffffffffffffffffff16905090565b610358610804565b73ffffffffffffffffffffffffffffffffffffffff16610376610327565b73ffffffffffffffffffffffffffffffffffffffff16146103cc576040517f08c379a00000000000000000000000000000000000000000000000000000000081526004016103c390611acc565b60405180910390fd5b600260149054906101000a900460ff1615600260146101000a81548160ff021916908315150217905550565b60011515600260149054906101000a900460ff161515141561044f576040517f08c379a000000000000000000000000000000000000000000000000000000000815260040161044690611b0c565b60405180910390fd5b61045881610956565b73ffffffffffffffffffffffffffffffffffffffff16600260009054906101000a900473ffffffffffffffffffffffffffffffffffffffff1673ffffffffffffffffffffffffffffffffffffffff16146104e7576040517f08c379a00000000000000000000000000000000000000000000000000000000081526004016104de90611a0c565b60405180910390fd5b8060000160208101906104fa919061144d565b73ffffffffffffffffffffffffffffffffffffffff163373ffffffffffffffffffffffffffffffffffffffff1614610567576040517f08c379a000000000000000000000000000000000000000000000000000000000815260040161055e90611b2c565b60405180910390fd5b60011515600360003373ffffffffffffffffffffffffffffffffffffffff1673ffffffffffffffffffffffffffffffffffffffff16815260200190815260200160002060009054906101000a900460ff16151514156105fb576040517f08c379a00000000000000000000000000000000000000000000000000000000081526004016105f290611a8c565b60405180910390fd5b6000670de0b6b3a764000082602001602081019061061991906114e0565b61ffff166106279190611c1b565b9050610657600160009054906101000a900473ffffffffffffffffffffffffffffffffffffffff163033846109c8565b6001600360003373ffffffffffffffffffffffffffffffffffffffff1673ffffffffffffffffffffffffffffffffffffffff16815260200190815260200160002060006101000a81548160ff0219169083151502179055507f650e45f04ef8a0c267b2f78d983913f69ae3a353b2b32de5429307522be0ab5533826040516106e0929190611897565b60405180910390a15050565b60036020528060005260406000206000915054906101000a900460ff1681565b610714610804565b73ffffffffffffffffffffffffffffffffffffffff16610732610327565b73ffffffffffffffffffffffffffffffffffffffff1614610788576040517f08c379a000000000000000000000000000000000000000000000000000000000815260040161077f90611acc565b60405180910390fd5b600073ffffffffffffffffffffffffffffffffffffffff168173ffffffffffffffffffffffffffffffffffffffff1614156107f8576040517f08c379a00000000000000000000000000000000000000000000000000000000081526004016107ef90611a2c565b60405180910390fd5b6108018161080c565b50565b600033905090565b60008060009054906101000a900473ffffffffffffffffffffffffffffffffffffffff169050816000806101000a81548173ffffffffffffffffffffffffffffffffffffffff021916908373ffffffffffffffffffffffffffffffffffffffff1602179055508173ffffffffffffffffffffffffffffffffffffffff168173ffffffffffffffffffffffffffffffffffffffff167f8be0079c531659141344cd1fd0a4f28419497f9722a3daafe3b4186f6b6457e060405160405180910390a35050565b6109518363a9059cbb60e01b84846040516024016108ef929190611897565b604051602081830303815290604052907bffffffffffffffffffffffffffffffffffffffffffffffffffffffff19166020820180517bffffffffffffffffffffffffffffffffffffffffffffffffffffffff8381831617835250505050610a51565b505050565b60008061096283610b18565b90506109c0818480604001906109789190611b87565b8080601f016020809104026020016040519081016040528093929190818152602001838380828437600081840152601f19601f82011690508083019250505050505050610b98565b915050919050565b610a4b846323b872dd60e01b8585856040516024016109e993929190611860565b604051602081830303815290604052907bffffffffffffffffffffffffffffffffffffffffffffffffffffffff19166020820180517bffffffffffffffffffffffffffffffffffffffffffffffffffffffff8381831617835250505050610a51565b50505050565b6000610ab3826040518060400160405280602081526020017f5361666545524332303a206c6f772d6c6576656c2063616c6c206661696c65648152508573ffffffffffffffffffffffffffffffffffffffff16610bbf9092919063ffffffff16565b9050600081511115610b135780806020019051810190610ad39190611476565b610b12576040517f08c379a0000000000000000000000000000000000000000000000000000000008152600401610b0990611b4c565b60405180910390fd5b5b505050565b6000610b917f9611493255b815b777536772d2108838eb77c2771aa3ce571a4d00adef2a7a08836000016020810190610b51919061144d565b846020016020810190610b6491906114e0565b604051602001610b76939291906118db565b60405160208183030381529060405280519060200120610bd7565b9050919050565b6000806000610ba78585610bf1565b91509150610bb481610c74565b819250505092915050565b6060610bce8484600085610fc5565b90509392505050565b6000610bea610be46110d9565b8361119c565b9050919050565b600080604183511415610c335760008060006020860151925060408601519150606086015160001a9050610c27878285856111cf565b94509450505050610c6d565b604083511415610c64576000806020850151915060408501519050610c598683836112dc565b935093505050610c6d565b60006002915091505b9250929050565b60006004811115610cae577f4e487b7100000000000000000000000000000000000000000000000000000000600052602160045260246000fd5b816004811115610ce7577f4e487b7100000000000000000000000000000000000000000000000000000000600052602160045260246000fd5b1415610cf257610fc2565b60016004811115610d2c577f4e487b7100000000000000000000000000000000000000000000000000000000600052602160045260246000fd5b816004811115610d65577f4e487b7100000000000000000000000000000000000000000000000000000000600052602160045260246000fd5b1415610da6576040517f08c379a0000000000000000000000000000000000000000000000000000000008152600401610d9d906119cc565b60405180910390fd5b60026004811115610de0577f4e487b7100000000000000000000000000000000000000000000000000000000600052602160045260246000fd5b816004811115610e19577f4e487b7100000000000000000000000000000000000000000000000000000000600052602160045260246000fd5b1415610e5a576040517f08c379a0000000000000000000000000000000000000000000000000000000008152600401610e51906119ec565b60405180910390fd5b60036004811115610e94577f4e487b7100000000000000000000000000000000000000000000000000000000600052602160045260246000fd5b816004811115610ecd577f4e487b7100000000000000000000000000000000000000000000000000000000600052602160045260246000fd5b1415610f0e576040517f08c379a0000000000000000000000000000000000000000000000000000000008152600401610f0590611a4c565b60405180910390fd5b600480811115610f47577f4e487b7100000000000000000000000000000000000000000000000000000000600052602160045260246000fd5b816004811115610f80577f4e487b7100000000000000000000000000000000000000000000000000000000600052602160045260246000fd5b1415610fc1576040517f08c379a0000000000000000000000000000000000000000000000000000000008152600401610fb890611aac565b60405180910390fd5b5b50565b60608247101561100a576040517f08c379a000000000000000000000000000000000000000000000000000000000815260040161100190611a6c565b60405180910390fd5b6110138561132a565b611052576040517f08c379a000000000000000000000000000000000000000000000000000000000815260040161104990611aec565b60405180910390fd5b6000808673ffffffffffffffffffffffffffffffffffffffff16858760405161107b91906117f7565b60006040518083038185875af1925050503d80600081146110b8576040519150601f19603f3d011682016040523d82523d6000602084013e6110bd565b606091505b50915091506110cd82828661133d565b92505050949350505050565b60007f000000000000000000000000000000000000000000000000000000000000000046141561112b577f00000000000000000000000000000000000000000000000000000000000000009050611199565b6111967f00000000000000000000000000000000000000000000000000000000000000007f00000000000000000000000000000000000000000000000000000000000000007f00000000000000000000000000000000000000000000000000000000000000006113a4565b90505b90565b600082826040516020016111b192919061180e565b60405160208183030381529060405280519060200120905092915050565b6000807f7fffffffffffffffffffffffffffffff5d576e7357a4501ddfe92f46681b20a08360001c111561120a5760006003915091506112d3565b601b8560ff16141580156112225750601c8560ff1614155b156112345760006004915091506112d3565b6000600187878787604051600081526020016040526040516112599493929190611965565b6020604051602081039080840390855afa15801561127b573d6000803e3d6000fd5b505050602060405103519050600073ffffffffffffffffffffffffffffffffffffffff168173ffffffffffffffffffffffffffffffffffffffff1614156112ca576000600192509250506112d3565b80600092509250505b94509492505050565b6000806000807f7fffffffffffffffffffffffffffffffffffffffffffffffffffffffffffffff85169150601b8560ff1c01905061131c878288856111cf565b935093505050935093915050565b600080823b905060008111915050919050565b6060831561134d5782905061139d565b6000835111156113605782518084602001fd5b816040517f08c379a000000000000000000000000000000000000000000000000000000000815260040161139491906119aa565b60405180910390fd5b9392505050565b600083838346306040516020016113bf959493929190611912565b6040516020818303038152906040528051906020012090509392505050565b6000813590506113ed81612081565b92915050565b60008151905061140281612098565b92915050565b60006060828403121561141a57600080fd5b81905092915050565b600081359050611432816120af565b92915050565b600081359050611447816120c6565b92915050565b60006020828403121561145f57600080fd5b600061146d848285016113de565b91505092915050565b60006020828403121561148857600080fd5b6000611496848285016113f3565b91505092915050565b6000602082840312156114b157600080fd5b600082013567ffffffffffffffff8111156114cb57600080fd5b6114d784828501611408565b91505092915050565b6000602082840312156114f257600080fd5b600061150084828501611423565b91505092915050565b60006020828403121561151b57600080fd5b600061152984828501611438565b91505092915050565b61153b81611c75565b82525050565b61154a81611c87565b82525050565b61155981611c93565b82525050565b61157061156b82611c93565b611d15565b82525050565b600061158182611bde565b61158b8185611bf4565b935061159b818560208601611ce2565b80840191505092915050565b60006115b282611be9565b6115bc8185611bff565b93506115cc818560208601611ce2565b6115d581611d4e565b840191505092915050565b60006115ed601883611bff565b91506115f882611d5f565b602082019050919050565b6000611610601f83611bff565b915061161b82611d88565b602082019050919050565b6000611633600f83611bff565b915061163e82611db1565b602082019050919050565b6000611656602683611bff565b915061166182611dda565b604082019050919050565b6000611679600283611c10565b915061168482611e29565b600282019050919050565b600061169c602283611bff565b91506116a782611e52565b604082019050919050565b60006116bf602683611bff565b91506116ca82611ea1565b604082019050919050565b60006116e2601f83611bff565b91506116ed82611ef0565b602082019050919050565b6000611705602283611bff565b915061171082611f19565b604082019050919050565b6000611728602083611bff565b915061173382611f68565b602082019050919050565b600061174b601d83611bff565b915061175682611f91565b602082019050919050565b600061176e601783611bff565b915061177982611fba565b602082019050919050565b6000611791603083611bff565b915061179c82611fe3565b604082019050919050565b60006117b4602a83611bff565b91506117bf82612032565b604082019050919050565b6117d381611c9d565b82525050565b6117e281611ccb565b82525050565b6117f181611cd5565b82525050565b60006118038284611576565b915081905092915050565b60006118198261166c565b9150611825828561155f565b602082019150611835828461155f565b6020820191508190509392505050565b600060208201905061185a6000830184611532565b92915050565b60006060820190506118756000830186611532565b6118826020830185611532565b61188f60408301846117d9565b949350505050565b60006040820190506118ac6000830185611532565b6118b960208301846117d9565b9392505050565b60006020820190506118d56000830184611541565b92915050565b60006060820190506118f06000830186611550565b6118fd6020830185611532565b61190a60408301846117ca565b949350505050565b600060a0820190506119276000830188611550565b6119346020830187611550565b6119416040830186611550565b61194e60608301856117d9565b61195b6080830184611532565b9695505050505050565b600060808201905061197a6000830187611550565b61198760208301866117e8565b6119946040830185611550565b6119a16060830184611550565b95945050505050565b600060208201905081810360008301526119c481846115a7565b905092915050565b600060208201905081810360008301526119e5816115e0565b9050919050565b60006020820190508181036000830152611a0581611603565b9050919050565b60006020820190508181036000830152611a2581611626565b9050919050565b60006020820190508181036000830152611a4581611649565b9050919050565b60006020820190508181036000830152611a658161168f565b9050919050565b60006020820190508181036000830152611a85816116b2565b9050919050565b60006020820190508181036000830152611aa5816116d5565b9050919050565b60006020820190508181036000830152611ac5816116f8565b9050919050565b60006020820190508181036000830152611ae58161171b565b9050919050565b60006020820190508181036000830152611b058161173e565b9050919050565b60006020820190508181036000830152611b2581611761565b9050919050565b60006020820190508181036000830152611b4581611784565b9050919050565b60006020820190508181036000830152611b65816117a7565b9050919050565b6000602082019050611b8160008301846117d9565b92915050565b60008083356001602003843603038112611ba057600080fd5b80840192508235915067ffffffffffffffff821115611bbe57600080fd5b602083019250600182023603831315611bd657600080fd5b509250929050565b600081519050919050565b600081519050919050565b600081905092915050565b600082825260208201905092915050565b600081905092915050565b6000611c2682611ccb565b9150611c3183611ccb565b9250817fffffffffffffffffffffffffffffffffffffffffffffffffffffffffffffffff0483118215151615611c6a57611c69611d1f565b5b828202905092915050565b6000611c8082611cab565b9050919050565b60008115159050919050565b6000819050919050565b600061ffff82169050919050565b600073ffffffffffffffffffffffffffffffffffffffff82169050919050565b6000819050919050565b600060ff82169050919050565b60005b83811015611d00578082015181840152602081019050611ce5565b83811115611d0f576000848401525b50505050565b6000819050919050565b7f4e487b7100000000000000000000000000000000000000000000000000000000600052601160045260246000fd5b6000601f19601f8301169050919050565b7f45434453413a20696e76616c6964207369676e61747572650000000000000000600082015250565b7f45434453413a20696e76616c6964207369676e6174757265206c656e67746800600082015250565b7f57726f6e67207369676e61747572650000000000000000000000000000000000600082015250565b7f4f776e61626c653a206e6577206f776e657220697320746865207a65726f206160008201527f6464726573730000000000000000000000000000000000000000000000000000602082015250565b7f1901000000000000000000000000000000000000000000000000000000000000600082015250565b7f45434453413a20696e76616c6964207369676e6174757265202773272076616c60008201527f7565000000000000000000000000000000000000000000000000000000000000602082015250565b7f416464726573733a20696e73756666696369656e742062616c616e636520666f60008201527f722063616c6c0000000000000000000000000000000000000000000000000000602082015250565b7f6164647265737320616c726561647920636c61696d65642061697264726f7000600082015250565b7f45434453413a20696e76616c6964207369676e6174757265202776272076616c60008201527f7565000000000000000000000000000000000000000000000000000000000000602082015250565b7f4f776e61626c653a2063616c6c6572206973206e6f7420746865206f776e6572600082015250565b7f416464726573733a2063616c6c20746f206e6f6e2d636f6e7472616374000000600082015250565b7f41697264726f7020686173206265656e20706175736564000000000000000000600082015250565b7f566f756368657220726563696576657220616e64206d73672e73656e6465722060008201527f617265206e6f74207468652073616d6500000000000000000000000000000000602082015250565b7f5361666545524332303a204552433230206f7065726174696f6e20646964206e60008201527f6f74207375636365656400000000000000000000000000000000000000000000602082015250565b61208a81611c75565b811461209557600080fd5b50565b6120a181611c87565b81146120ac57600080fd5b50565b6120b881611c9d565b81146120c357600080fd5b50565b6120cf81611ccb565b81146120da57600080fd5b5056fea26469706673582212202e3caf0f5476b3e78babb4f576044d1f5068dd223025950f4566ff2e0a228f6164736f6c63430008040033",
  "linkReferences": {},
  "deployedLinkReferences": {}
}